:020000040800F2
:1000000000040020DF0D0008ED0D0008EF0D0008D2
:10001000F10D0008F30D0008F50D000800000000C8
:10002000000000000000000000000000F70D0008C4
:10003000F90D000800000000FB0D0008FD0D000890
:10004000410E0008430E0008450E0008470E000848
:10005000490E00084B0E00084D0E00084F0E000818
:10006000510E0008530E0008550E0008570E0008E8
:10007000590E00085B0E00085D0E00085F0E0008B8
:10008000610E0008630E0008650E0008FF0D0008F1
:10009000FF0D0008FF0D0008FF0D00086F0E00089F
:1000A000710E0008730E0008750E0008770E000828
:1000B000790E00087B0E00087D0E00087F0E0008F8
:1000C000810E0008830E0008850E0008870E0008C8
:1000D000890E00088B0E00088D0E00088F0E000898
:1000E000910E0008930E0008950E0008970E000868
:1000F000990E00089B0E00089D0E00089F0E000838
:10010000A10E0008A30E0008A50E0008A70E000807
:10011000A90E0008AB0E0008AD0E0008AF0E0008D7
:10012000B10E0008B30E0008B50E0008B70E0008A7
:1001300000F002F800F03AF80AA090E8000C8244BF
:100140008344AAF10107DA4501D100F02FF8AFF29C
:10015000090EBAE80F0013F0010F18BFFB1A43F0A5
:10016000010318470C8100002C810000103A24BFC5
:1001700078C878C1FAD8520724BF30C830C144BF0C
:1001800004680C607047000000230024002500264E
:10019000103A28BF78C1FBD8520728BF30C148BFEA
:1001A0000B6070471FB51FBD10B510BD01F0A9F859
:1001B0001146FFF7F7FF00F0D6FF01F0C7F803B4D0
:1001C000FFF7F2FF03BC01F0CBF8000010B50446C6
:1001D000C248844208D10121042000F017FB00210D
:1001E000042000F013FB46E0BD48844208D1012101
:1001F000082000F00BFB0021082000F007FB3AE08C
:10020000B848844208D10121102000F0FFFA0021F3
:10021000102000F0FBFA2EE0B348844208D10121FF
:10022000202000F0F3FA0021202000F0EFFA22E075
:10023000AE48844208D10121402000F0E7FA0021B5
:10024000402000F0E3FA16E0A948844208D10121D9
:10025000802000F0DBFA0021802000F0D7FA0AE0CD
:10026000A448844207D10121801500F0CFFA002173
:10027000A01500F0CBFA10BD10B50121084600F022
:10028000C5FA0021012000F0C1FA10BD2DE9F041AE
:10029000024600250026002000230024002791F8B4
:1002A00003C00CF00F0591F803C01CF0100F03D031
:1002B00091F802C04CEA050591F800C0BCF1000FAE
:1002C00031D0146800202BE04FF0010C0CFA00F341
:1002D000B1F800C00CEA03069E4220D183004FF023
:1002E0000F0C0CFA03F7BC4305FA03FC4CEA0404B8
:1002F00091F803C0BCF1280F06D14FF0010C0CFAA5
:1003000000FCC2F814C00AE091F803C0BCF1480F29
:1003100005D14FF0010C0CFA00FCC2F810C0401CD3
:100320000828D1D31460B1F800C0BCF1FF0F34DD50
:10033000546800202EE000F1080C4FF0010808FA84
:100340000CF3B1F800C00CEA03069E4221D18300F1
:100350004FF00F0C0CFA03F7BC4305FA03FC4CEA10
:10036000040491F803C0BCF1280F05D100F1080C7A
:1003700008FA0CF8C2F8148091F803C0BCF1480FD9
:1003800007D100F1080C4FF0010808FA0CF8C2F888
:100390001080401C0828CED35460BDE8F0814FF691
:1003A000FF710180022181700421C17070470246F3
:1003B000002093680B4201D0012000E0002070472C
:1003C0000146886880B2704702460020D3680B421D
:1003D00001D0012000E0002070470146C86880B2CB
:1003E000704701617047416170470AB1016100E0E7
:1003F00041617047C16070474FF480320A438261A7
:1004000081618261826982697047024600203A4BAD
:1004100018684FF68073184040EA02100843364BC4
:10042000186070473549C8617047F0B50A46002327
:10043000002400210025304E7168C0F3034583B2CB
:1004400000F44016B6F5401F08D121F070612A4E25
:10045000766826F07066284F7E6012E000F4801601
:10046000B6F5801F06D1032606FA05F4A14341F034
:10047000706106E0460D360103FA06F6B14341F01D
:10048000706122B1460D360103FA06F631431A4E69
:100490007160F0BD30B500228B071C0F0F2303FAEB
:1004A00004F2154B08338C1053F824309343124C4C
:1004B00008348D1044F8253023468C1053F824302E
:1004C0008C07240F00FA04F423430B4C08348D10DE
:1004D00044F8253030BD0A490860704700080140E3
:1004E000000C0140001001400014014000180140C0
:1004F000001C01400020014000000140000020429B
:10050000DC002042DD48006840F00100DB49086063
:1005100008464068DA490840D849486008460068FB
:10052000D8490840D54908600846006820F4802072
:1005300008600846406820F4FE0048604FF41F0041
:1005400088607047CD49096821F48031CB4A116039
:100550001146096821F480211160B0F5803F03D075
:10056000B0F5802F0ED106E0C449096841F480310E
:10057000C24A116007E0C149096841F4A021BF4A9D
:10058000116000E000BF00BF704710B501460022B7
:10059000002300204A11012A02D1B84C236806E04A
:1005A000022A02D1B54C236A01E0B44C636A01F01F
:1005B0001F02012494401C4201D0012000E00020D1
:1005C00010BD38B5002000900024002500BF312068
:1005D000FFF7DBFF05460098401C00900098B0F53F
:1005E000A06F01D0002DF2D03120FFF7CEFF08B16F
:1005F000012400E00024204638BD014600209F4A27
:10060000106820F0F80040EAC100106070479E4971
:100610000860704702460020984B586820F47C1010
:1006200042EA01031843954B5860704796490866A3
:10063000704701460020914A506820F003000843AB
:10064000506070478D48406800F00C0070470146CC
:1006500000208A4A506820F0F0000843506070473C
:1006600001460020854A506820F4E060084350604D
:10067000704701460020814A506820F4605040EAEB
:10068000C1005060704729B17C4A527A02437B4BCB
:100690005A7204E0794A527A8243784B5A72704710
:1006A0007A490860704701460020744A506820F477
:1006B00040400843506070470021754A11706F4AEE
:1006C00082F82010012802D0042808D103E001217B
:1006D0006F4A117004E005216D4A117000E000BFFF
:1006E00000BF70476B49086070476449096A01435D
:1006F000624A11627047674944390860704730B5F3
:1007000000210022002400235C4D6D6805F00C01DF
:1007100021B1042905D0082923D105E05E4D0560EB
:1007200022E05D4D05601FE0544D6D6805F47012C8
:10073000524D6D6805F48034022505EB92421CB9D8
:10074000564D554305600BE04C4D6D6815F4003F68
:1007500003D0524D5543056002E04F4D55430560AF
:1007600002E04D4D056000BF00BF444D6D6805F0CF
:10077000F00109094A4D6B5C0568DD4045603F4D5D
:100780006D6805F4E061090A454D6B5C4568DD4024
:1007900085603A4D6D6805F46051C90A404D6B5C47
:1007A0004568DD40C560354D6D6805F44041890BF5
:1007B0003C4D6B5CC568B5FBF3F5056130BD29B1F7
:1007C0002E4A526902432D4B5A6104E02B4A52696A
:1007D00082432A4B5A61704729B1284A92690243E1
:1007E000264B9A6104E0254A92698243234B9A6121
:1007F000704729B1214AD2690243204BDA6104E0F3
:100800001E4AD26982431D4BDA61704729B11B4AE7
:10081000D2680243194BDA6004E0184AD268824376
:10082000164BDA60704729B1144A12690243134B20
:100830001A6104E0114A12698243104B1A61704731
:1008400014494039086070470F49C86470470B4924
:10085000C87170470948406A40F080700749486293
:10086000704701460020054A92680A4201D00120E3
:1008700000E0002070470149887270470010024074
:100880000000FFF8FFFFF6FE00004242D80042429F
:10089000201002408004424200127A0000093D000C
:1008A000000000201000002001460020FD4A1068D2
:1008B00000F03800084310607047FA49096821F0D9
:1008C0000801F84A11601146096801431160704738
:1008D000F449096821F01001F24A116011460968D3
:1008E000014311607047F048EE494860EF484860A6
:1008F0007047EC48006940F08000EA4908617047A1
:100900000420E849C96811F0010F01D001200EE070
:10091000E449C96811F0040F01D0022007E0E14961
:10092000C96811F0100F01D0032000E004207047C7
:1009300008B500200090FF20009002E00098401EC3
:10094000009000980028F9D108BD70B50446042530
:10095000FFF7D6FF054605E0FFF7EAFFFFF7D0FFF8
:100960000546641E012D01D1002CF5D104B90525E1
:10097000284670BD70B50546042440F6FF70FFF7A9
:10098000E4FF0446042C19D1C648006940F0020077
:10099000C449086108464561006940F040000861AB
:1009A00040F6FF70FFF7D1FF0446052C06D0BD4886
:1009B000006941F6FD710840BA490861204670BDE2
:1009C00010B5042440F6FF70FFF7BFFF0446042C67
:1009D00018D1B448006940F00400B24908610846E3
:1009E000006940F04000086140F6FF70FFF7ADFF7E
:1009F0000446052C06D0AB48006941F6FB7108405F
:100A0000A8490861204610BD10B5042440F6FF70C7
:100A1000FFF79BFF0446042C3BD1A348A149886003
:100A2000A24888600846006940F020000861084636
:100A3000006940F04000086140F6FF70FFF785FF55
:100A40000446042C1CD19748006941F6DF71084028
:100A5000944908610846006940F010000861A5202B
:100A6000934908800F20FFF770FF0446052C10D033
:100A70008C48006941F6EF7108408A49086108E036
:100A8000052C06D08748006941F6EF71084085497A
:100A90000861204610BDF8B506460D460424002026
:100AA00000900F20FFF751FF0446042C28D17D4809
:100AB000006940F001007B49086135800F20FFF795
:100AC00044FF0446042C12D1B01C0090280C00995D
:100AD00008800F20FFF739FF0446052C10D071481D
:100AE000006941F6FE7108406E49086108E0052C76
:100AF00006D06C48006941F6FE71084069490861FA
:100B00002046F8BD70B505460E4604240F20FFF7B9
:100B10001CFF0446042C13D16248006940F0010018
:100B2000604908612E800F20FFF70FFF0446052C57
:100B300006D05C48006941F6FE71084059490861D9
:100B4000204670BD70B505460E4604240F20FFF701
:100B5000FCFE0446042C17D1534852498860534880
:100B600088600846006940F0100008612E800F2060
:100B7000FFF7EBFE0446052C06D04A48006941F613
:100B8000EF71084047490861204670BD2DE9F047E4
:100B900004464FF6FF763746B046B1460425E44397
:100BA000E6B2C4F30727C4F307484FEA14690F20DD
:100BB000FFF7CBFE0546042D40D13B4839498860FC
:100BC0003A4888600846006940F010000861FF2E2E
:100BD00006D03748083006800F20FFF7B6FE0546DE
:100BE000042D08D1FF2F06D031480A3007800F208E
:100BF000FFF7ABFE0546042D0AD1B8F1FF0F07D071
:100C00002B480C30A0F800800F20FFF79EFE054611
:100C1000042D0AD1B9F1FF0F07D025480E30A0F8F6
:100C200000900F20FFF791FE0546052D06D01D48C8
:100C3000006941F6EF7108401A4908612846BDE88D
:100C4000F08770B50546042440F6FF70FFF77DFE7F
:100C50000446042C49D1144812498860134888601E
:100C60000846006940F0200008610846006940F02D
:100C70004000086140F6FF70FFF767FE0446042C51
:100C80002AD10848006941F6DF710840054908612A
:100C90000846006940F0100008615DB10020044979
:100CA00008800AE00020024023016745AB89EFCDB0
:100CB00000F8FF1FA5204549088040F6FF70FFF7A8
:100CC00044FE0446052C10D04148006941F6EF71FE
:100CD00008403F49086108E0052C06D03C480069FF
:100CE00041F6DF7108403A490861204670BD2DE9A0
:100CF000F04105460E4617460424364834498860BC
:100D0000354888600F20FFF720FE0446042C19D1D7
:100D10002F48006940F010002D49086147F0F800A5
:100D2000304328432949891C08800F20FFF70DFE16
:100D30000446052C06D02648006941F6EF710840AC
:100D4000234908612046BDE8F0812148C069800838
:100D500070471F48006A704700201D49C96911F09B
:100D6000020F01D0012000E0002070470020184948
:100D7000096811F0200F01D0012000E00020704729
:100D800029B1134A12690243114B1A6104E0104A57
:100D9000126982430E4B1A617047014600200129F7
:100DA00008D10B4AD26912F0010F01D0012008E0EE
:100DB000002006E0064AD2680A4201D0012000E085
:100DC000002070470249C8607047000000F8FF1F0C
:100DD0000020024023016745AB89EFCD70470B48E7
:100DE00080470B4981F308880A480047FEE7FEE781
:100DF000FEE7FEE7FEE7FEE7FEE7FEE7FEE7FEE7CB
:100E000005480649064A074B70470000DD0D0008FB
:100E100080060020310100088000002080060020AC
:100E200080020020800200207047704700BFFEE76C
:100E300000BFFEE700BFFEE770477047704770478E
:100E400070477047704770477047704770477047EA
:100E500070477047704770477047704770477047DA
:100E600070477047704770477047704770477047CA
:100E700070477047704770477047704770477047BA
:100E800070477047704770477047704770477047AA
:100E9000704770477047704770477047704770479A
:100EA000704770477047704770477047704770478A
:100EB000704770477047704700E0401E0128FCD81B
:100EC00070470022002100BF05E0002200E0521C14
:100ED000FF2AFCD9491C8142F7D3704710B5002185
:100EE0000BE0002205E0002300E05B1CDE2BFCDBB6
:100EF000521CB2F57A6FF6DB491C8142F1D310BD6A
:100F000030B50446002503E03C20FFF7E7FF6D1CE9
:100F1000A542F9D330BD10B500BF712000F0A4F98F
:100F20004FF40051A748FFF742FA044604F00100CD
:100F300080F00104002CF0D1C820FFF7C2FF10BDE3
:100F400010B5022000F090F9FFF7E5FF072000F050
:100F50008BF9A52000F0A0F910BD10B5122000F00B
:100F600083F96420FFF7ADFFFFF7D5FF10BD10B583
:100F7000102000F079F9002403E0FF2000F08CF944
:100F8000641CB4F5945FF8D3132000F06DF90024CD
:100F900003E0FF2000F080F9641CB4F5945FF8D3FF
:100FA00010BD10B58020884908700120874908705D
:100FB00028208749087000F08BF9062000F054F9CA
:100FC000172000F069F9172000F066F9172000F0EB
:100FD00063F9042000F048F9FFF79DFF002000F0BE
:100FE00043F90F2000F058F90D2000F055F9612069
:100FF00000F03AF97448007800F04EF97348007830
:1010000000F04AF97248007800F046F9502000F0EC
:101010002BF9772000F040F910BD70B505460E465B
:10102000102000F021F9002404E0287800F034F9C1
:101030006D1C641CB4F5945FF7D3132000F014F911
:10104000002404E0307800F027F9761C641CB4F525
:10105000945FF7D370BD08B501216020FFF7BCFB9A
:101060004FF4E060ADF8000010208DF8030002207E
:101070008DF8020069465748FFF708F94FF44040E1
:10108000ADF8000010208DF8030002208DF802005A
:1010900069464C48FFF7FAF84FF40050ADF80000ED
:1010A00048208DF8030002208DF80200694645486B
:1010B000FFF7ECF84FF48050ADF8000010208DF8E9
:1010C000030002208DF8020069463E48FFF7DEF873
:1010D00008BD10B5FFF716FA4FF48030FFF732FA6B
:1010E000FFF76FFA3C49087008460078012805D1DF
:1010F0004FF4E0110004FFF78DFA0DE00120FFF737
:1011000086FA00BF2120FFF740FA0028FAD04FF4FA
:1011100060110020FFF77EFA1020FFF7D9FB0220B4
:10112000FFF7C2FB0020FFF792FA0020FFF7A1FAB9
:101130004FF48060FFF794FA0120FFF777FA00BFC1
:101140003920FFF722FA0028FAD00220FFF771FABF
:1011500000BFFFF777FA0828FBD1012144F2050010
:10116000FFF73AFB10BDFFF7B4FFFFF774FF26E06F
:10117000FFF717FF19491A48FFF74FFFFFF7EDFE7A
:10118000FFF7DEFE3C20FFF7A9FEFFF70AFF154937
:101190001548FFF742FFFFF7E0FEFFF7D1FE3C20C6
:1011A000FFF79CFEFFF7FDFEFFF7E1FEFFF7D5FE20
:1011B000FFF7C6FE3C20FFF791FE00BFFEE7D7E732
:1011C00070470000001801401C0000201D00002096
:1011D0001E0000200014014014000020EE2500082D
:1011E0006E130008EE4A00086E38000807E0002180
:1011F00001E04A1CD1B20229FBDB421ED0B200281A
:10120000F5D1704770B504460120FFF7EFFF0025C8
:1012100027E04FF400712C48FFF7E5F80120FFF7B5
:10122000E5FF14F0800F05D04FF480612648FFF7EA
:10123000D8F804E04FF480612348FFF7D4F8600643
:10124000040E0120FFF7D2FF0120FFF735FE4FF417
:1012500000711D48FFF7C5F80120FFF7C7FF681CA4
:10126000C5B2082DD5DB70BD10B504460120FFF7CF
:10127000BDFF4FF480711448FFF7B5F84FF40041FB
:101280001248FFF7B0F82046FFF7BCFF4FF480711B
:101290000D48FFF7A6F810BD10B504460120FFF772
:1012A000A5FF4FF480710848FFF79DF84FF4004107
:1012B0000648FFF796F82046FFF7A4FF4FF4807129
:1012C0000148FFF78EF810BD0014014000180140DE
:1012D00010B54FF480410848FFF785F84FF47A7055
:1012E000FFF7EFFD4FF480410348FFF77AF84FF422
:1012F0007A70FFF7E6FD10BD001801407047704797
:101300007047754600F028F8AE460500694653461A
:1013100020F00700854618B020B5FFF771FDBDE845
:1013200020404FF000064FF000074FF000084FF04C
:10133000000B21F00701AC46ACE8C009ACE8C009DD
:10134000ACE8C009ACE8C0098D4670470446AFF36D
:1013500000802046FEF733FF004870472000002041
:1013600001491820ABBEFEE7260002007047FFFFD0
:10137000FFFFFFFFFFFFFFFFFFFFFFFFFFFFFFFF7D
:10138000FFFFFFFFFFFFFFFFFFFFFFFFFFFFFFFF6D
:10139000FFFFFFFFFFFFFFFFFFFFFFFFFFFFFFFF5D
:1013A000FFFFFFFFFFFFFFFFFFFFFFFFFFFFFFFF4D
:1013B000FFFFFFFFFFFFFFFFFFFFFFFFFFFFFFFF3D
:1013C000FFFFFFFFFFFFFFFFFFFFFFFFFFFFFFFF2D
:1013D000FFFFFFFFFFFFFFFFFFFFFFFFFFFFFFFF1D
:1013E000FFFFFFFFFFFFFFFFFFFFFFFFFFFFFFFF0D
:1013F000FFFFFFFFFFFFFFFFF8078CC41FFFFFFF8A
:10140000FFFFFFFFFFFFFFFFFBF731F9FFFFFFFFCC
:10141000FFFFFFFFFFFFFFFFFA177E3AFFFFFFFF0F
:10142000FFFFFFFFFFFFFFFFFA141DC9DFFFFFFFF4
:10143000FFFFFFFFFFFFFFFFFA141DC9DFFFFFFFE4
:10144000FFFFFFFFFFFFFFFFFA143C033FFFFFFF1B
:10145000FFFFFFFFFFFFFFFFFBF710783FFFFFFFDE
:10146000FFFFFFFFFFFFFFFFF807AF493FFFFFFF51
:10147000FFFFFFFFFFFFFFFFFFFF0D793FFFFFFFB4
:10148000FFFFFFFFFFFFFFFFFE0341021FFFFFFF04
:10149000FFFFFFFFFFFFFFFFFE0341021FFFFFFFF4
:1014A000FFFFFFFFFFFFFFFFFEFF20F1FFFFFFFF3A
:1014B000FFFFFFFFFFFFFFFFFAD0FC431FFFFFFF0F
:1014C000FFFFFFFFFFFFFFFFFF2CF349FFFFFFFFC1
:1014D000FFFFFFFFFFFFFFFFFD146F72DFFFFFFF46
:1014E000FFFFFFFFFFFFFFFFF83872053FFFFFFF21
:1014F000FFFFFFFFFFFFFFFFF83872053FFFFFFF11
:10150000FFFFFFFFFFFFFFFFFA0443FB3FFFFFFF6B
:10151000FFFFFFFFFFFFFFFFFAE8A0F33FFFFFFF22
:10152000FFFFFFFFFFFFFFFFFF176F071FFFFFFF1B
:10153000FFFFFFFFFFFFFFFFFFFC6EFFFFFFFFFF4F
:10154000FFFFFFFFFFFFFFFFF804AD401FFFFFFF9E
:10155000FFFFFFFFFFFFFFFFF804AD401FFFFFFF8E
:10156000FFFFFFFFFFFFFFFFFBF492CFDFFFFFFF57
:10157000FFFFFFFFFFFFFFFFFA176FC8DFFFFFFF4F
:10158000FFFFFFFFFFFFFFFFFA1791C8DFFFFFFF1D
:10159000FFFFFFFFFFFFFFFFFA173248DFFFFFFFEC
:1015A000FFFFFFFFFFFFFFFFFBF413CFDFFFFFFF96
:1015B000FFFFFFFFFFFFFFFFFBF413CFDFFFFFFF86
:1015C000FFFFFFFFFFFFFFFFF804A0401FFFFFFF2B
:1015D000FFFFFFFFFFFFFFFFFFFFFFFFFFFFFFFF1B
:1015E000FFFFFFFFFFFFFFFFFFFFFFFFFFFFFFFF0B
:1015F000FFFFFFFFFFFFFFFFFFFFFFFFFFFFFFFFFB
:10160000FFFFFFFFFFFFFFFFFFFFFFFFFFFFFFFFEA
:10161000FFFFFFFFFFFFFFFFFFFFFFFFFFFFFFFFDA
:10162000FFFFFFFFFFFFFFFFFFFFFFFFFFFFFFFFCA
:10163000FFFFFFFFFFFFFFFFFFFFFFFFFFFFFFFFBA
:10164000FFFFFFFFFFFFFFFFFFFFFFFFFFFFFFFFAA
:10165000FFFFFFFFFFFFFFFFFFFFFFFFFFFFFFFF9A
:10166000FFFFFFFFFFFFFFFFFFFFFFFFFFFFFFFF8A
:10167000FFFFFFFFFFFFFFFFFFFFFFFFFFFFFFFF7A
:10168000FFFFFFFFFFFFFFFFFFFFFFFFFFFFFFFF6A
:10169000FFFFFFFFFFFFFFFFFFFFFFFFFFFFFFFF5A
:1016A000FFFFFFFFFFFFFFFFFFFFFFFFFFFFFFFF4A
:1016B000FFFFFFFFFFFFFFFFFFFFFFFFFFFFFFFF3A
:1016C000FFFFFFFFFFFFFFFFFFFFFFFFFFFFFFFF2A
:1016D000FFFFFFFFFFFFFFFFFFFFFFFFFFFFFFFF1A
:1016E000FFFFFFFFFFFFFFFFFFFFFFFFFFFFFFFF0A
:1016F000FFFFFFFFFFFFFFFFFFFFFFFFFFFFFFFFFA
:10170000FFFFFFFFFFFFFFFFFFFFFFFFFFFFFFFFE9
:10171000FFFFFFFFFFFFFFFFF0000007FFFFFFFFDE
:10172000FFFFFFFFFFFFFFFFF0000007FFFFFFFFCE
:10173000FFFFFFFFFFFFFFFFF0000007FFFFFFFFBE
:10174000FFFFFFFFFFFFFFFFF0000007FFFFFFFFAE
:10175000FFFFFFFFFFFFFFFFF0000007FFFFFFFF9E
:10176000FFFFFFFFFFFFFFFFF0000007FFFFFFFF8E
:10177000FFFFFFFFFFFFFFFFFFFFFFFFFFFFFFFF79
:10178000FFFFFFFFFFFFFFFFF0000007FFFFFFFF6E
:10179000FFFFFFFFFFFFFFFFFFFFFFFFFFFFFFFF59
:1017A000FFFFFFFFFFFFFFFFFFFFFFFFFFFFFFFF49
:1017B000FFFFFFFFFFFFFFFFF0000007FFFFFFFF3E
:1017C000FFFFFFFFFFFFFFFFF0000007FFFFFFFF2E
:1017D000FFFFFFFFFFFFFFFFF0000007FFFFFFFF1E
:1017E000FFFFFFFFFFFFFFFFF0000007FFFFFFFF0E
:1017F000FFFFFFFFFFFFFFFFFFFFFFFFFFFFFFFFF9
:10180000FFFFFFFFFFFFFFFFFFFFFFFF67FFFFFF80
:10181000FFFFFFFFFFFFFFFFFFFFFFFF5BFFFFFF7C
:10182000FFFFFFFFFFFFFFFFFFFFFFFF5BFFFFFF6C
:10183000FFFFFFFFFFFFFFFFFFFFFFFF5BFFFFFF5C
:10184000FFFFFFFFFFFFFFFFF000000797FFFFFF15
:10185000FFFFFFFFFFFFFFFFFFFFFFFFFFFFFFFF98
:10186000FFFFFFFFFFFFFFFFFFFFFFFF67FFFFFF20
:10187000FFFFFFFFFFFFFFFFFFFFFFFF5BFFFFFF1C
:10188000FFFFFFFFFFFFFFFFF00000075BFFFFFF11
:10189000FFFFFFFFFFFFFFFFFFFFFFFF5BFFFFFFFC
:1018A000FFFFFFFFFFFFFFFFFFFFFFFF87FFFFFFC0
:1018B000FFFFFFFFFFFFFFFFF0000007FFFFFFFF3D
:1018C000FFFFFFFFFFFFFFFFF000000767FFFFFFC5
:1018D000FFFFFFFFFFFFFFFFF00000075BFFFFFFC1
:1018E000FFFFFFFFFFFFFFFFFFFFFFFF5BFFFFFFAC
:1018F000FFFFFFFFFFFFFFFFFFFFFFFF5BFFFFFF9C
:10190000FFFFFFFFFFFFFFFFFFFFFFFF97FFFFFF4F
:10191000FFFFFFFFFFFFFFFFF0000007FFFFFFFFDC
:10192000FFFFFFFFFFFFFFFFFFFFFFFF87FFFFFF3F
:10193000FFFFFFFFFFFFFFFFFFFFFFFF6BFFFFFF4B
:10194000FFFFFFFFFFFFFFFFF00000076BFFFFFF40
:10195000FFFFFFFFFFFFFFFFF00000076BFFFFFF30
:10196000FFFFFFFFFFFFFFFFFFFFFFFF9BFFFFFFEB
:10197000FFFFFFFFFFFFFFFFFFFFFFFFFFFFFFFF77
:10198000FFFFFFFFFFFFFFFFF000000703FFFFFF68
:10199000FFFFFFFFFFFFFFFFFFFFFFFFBFFFFFFF97
:1019A000FFFFFFFFFFFFFFFFF0000007BFFFFFFF8C
:1019B000FFFFFFFFFFFFFFFFFFFFFFFFFFFFFFFF37
:1019C000FFFFFFFFFFFFFFFFFFFFFFFFFFFFFFFF27
:1019D000FFFFFFFFFFFFFFFFFFFFFFFF67FFFFFFAF
:1019E000FFFFFFFFFFFFFFFFF00000075BFFFFFFB0
:1019F000FFFFFFFFFFFFFFFFF00000075BFFFFFFA0
:101A0000FFFFFFFFFFFFFFFFFFFFFFFF5BFFFFFF8A
:101A1000FFFFFFFFFFFFFFFFFFFFFFFF87FFFFFF4E
:101A2000FFFFFFFFFFFFFFFFF0000007F7FFFFFFD3
:101A3000FFFFFFFFFFFFFFFFFFFFFFFF03FFFFFFB2
:101A4000FFFFFFFFFFFFFFFFFFFFFFFF77FFFFFF2E
:101A5000FFFFFFFFFFFFFFFFFFFFFFFFB7FFFFFFDE
:101A6000FFFFFFFFFFFFFFFFF0000007D7FFFFFFB3
:101A7000FFFFFFFFFFFFFFFFF0000007E7FFFFFF93
:101A8000FFFFFFFFFFFFFFFFFFFFFFFFFFFFFFFF66
:101A9000FFFFFFFFFFFFFFFFFFFFFFFFA7FFFFFFAE
:101AA000FFFFFFFFFFFFFFFFF00000075BFFFFFFEF
:101AB000FFFFFFFFFFFFFFFFFFFFFFFF5BFFFFFFDA
:101AC000FFFFFFFFFFFFFFFFFFFFFFFF5BFFFFFFCA
:101AD000FFFFFFFFFFFFFFFFFFFFFFFFA7FFFFFF6E
:101AE000FFFFFFFFFFFFFFFFFFFFFFFFFFFFFFFF06
:101AF000FFFFFFFFFFFFFFFFF0000007FFFFFFFFFB
:101B0000FFFFFFFFFFFFFFFFFFFFFFFFFFFFFFFFE5
:101B1000FFFFFFFFFFFFFFFFF0000007FFFFFFFFDA
:101B2000FFFFFFFFFFFFFFFFF0000007FFFFFFFFCA
:101B3000FFFFFFFFFFFFFFFFFFFFFFFFFFFFFFFFB5
:101B4000FFFFFFFFFFFFFFFFFFFFFFFFFFFFFFFFA5
:101B5000FFFFFFFFFFFFFFFFF0000007FFFFFFFF9A
:101B6000FFFFFFFFFFFFFFFFF0000007FFFFFFFF8A
:101B7000FFFFFFFFFFFFFFFFF0000007FFFFFFFF7A
:101B8000FFFFFFFFFFFFFFFFF0000007FFFFFFFF6A
:101B9000FFFFFFFFFFFFFFFFFFFFFFFFFFFFFFFF55
:101BA000FFFFFFFFFFFFFFFFFFFFFFFFFFFFFFFF45
:101BB000FFFFFFFFFFFFFFFFF0000007FFFFFFFF3A
:101BC000FFFFFFFFFFFFFFFFFFFFFFFFFFFFFFFF25
:101BD000FFFFFFFFFFFFFFFFF0000007FFFFFFFF1A
:101BE000FFFFFFFFFFFFFFFFF0000007FFFFFFFF0A
:101BF000FFFFFFFFFFFFFFFFF0000007FFFFFFFFFA
:101C0000FFFFFFFFFFFFFFFFF0000007FFFFFFFFE9
:101C1000FFFFFFFFFFFFFFFFFFFFFFFFFFFFFFFFD4
:101C2000FFFFFFFFFFFFFFFFFFFFFFFFFFFFFFFFC4
:101C3000FFFFFFFFFFFFFFFFFFFFFFF03FFFFFFF83
:101C4000FFFFFFFFFFFFFFFFFFFFFFE03FFFFFFF83
:101C5000FFFFFFFFFFFFFFFFFFFFFFEFFFFFFFFFA4
:101C6000FFFFFFFFFFFFFFFFFFFFFFF7FFFFFFFF8C
:101C7000FFFFFFFFFFFFFFFFFFFFFFE03FFFFFFF53
:101C8000FFFFFFFFFFFFFE7FFFFFFFE03FFFFFFFC4
:101C9000FFFFFFFFFFFFFC7FFFFFFFEFFFFFFFFFE7
:101CA000FFFFFFFFFFFFF87FFFFFFFF7FFFFFFFFD3
:101CB000FFFFFFFFFFFFF87FFFFFFFE03FFFFFFF9A
:101CC000FFFFFFFFFFFFF27FFFFFFFE03FFFFFFF90
:101CD000FFFFFFFFFFFFE67FFFFFFFFFFFFFFFFFAD
:101CE000F01FFFFFFFFF0E7FFFFFFFFFFFFFFFFF64
:101CF000F7DFFFFFFFFF1E7FFFFFFFF07FFFFFFF0C
:101D0000F7DFFFFFFFFE3E7FFFFFFFE03FFFFFFF2C
:101D1000F7DFFFFFFFFC7E7FFFFFFFEFBFFFFFFF4F
:101D2000F000000002F8FE7FFFFFFFEFBFFFFFFFA4
:101D3000F019FFFFF6F1FE7FFFFFFFE03FFFFFFF1F
:101D4000F7D9FFFFEEE3FE7FFFFFFFF07FFFFFFF0E
:101D5000F7DC7FFFCE87FE7FFFFFFFFFFFFFFFFF68
:101D6000F7DE7FFF8E8FFE7FFFFFFFF77FFFFFFF16
:101D7000F7DE3FFF0E1FFE7FFFFFFFE73FFFFFFF86
:101D8000F7DF03F83E7FFE7FFFFFFFEFBFFFFFFFA0
:101D9000F7DFC000FE7FF807FFFFFFEFBFFFFFFF89
:101DA000F01FF000FEFFE003FFFFFFE03FFFFFFF3B
:101DB000F01FFC0FFEFF87F1FFFFFFF07FFFFFFF2B
:101DC000FFDFFFFFFEFE7FFF7FFFFFFFFFFFFFFF45
:101DD000FFDFFFFFFEFC7FFF3FFFFFFFFFFFFFFF77
:101DE000FFDFFFFFFEFCFFFF9FFFFFFF3FFFFFFF47
:101DF000FFDFFFFFFEF8FFFF9FFFFFFF3FFFFFFF3B
:101E0000FFDFFFFFFEF9FC7FDFFFFFE7FFFFF07F53
:101E1000FFDFFFFFFEF9FB9FDFFFFFE0FFFFF01F8B
:101E2000FFDFFFFFFEF9FB9FDFFFFFF81FFFF20759
:101E3000FFDFFFFFFEF9F39FDFFFFFFF07FFF380E8
:101E4000FFDFFFFFFEF9F39FDFFFFFF807FFF3F867
:101E50000FDFFFFFFEF9FB9FDFFFFFE0F7FFF3FF60
:101E600001DFFFFFFEF9F81FDFFFFFE7F7FFF3FFDA
:101E7000E01FFFFFFEF9F83F9FFFFFFFFFFFF3FFAB
:101E8000FE1FFFFFFEF8FFFF1FFFFFF03FFFF3FF06
:101E9000FF9FFFFFFEFCFFFF1FFFFFE03FFFF3FF81
:101EA000FFDFFFFFFEFF1FF8FFFFFFEBBFFFF3FFAA
:101EB000FFDFFFFFFEFF0FF8FFFFFFE9BFFFF3FFAC
:101EC000FFDFFFFFFEFF87E1FFFFFFEC3FFFF3FFB8
:101ED000FFDFFFFFFEFFC003FFFFFFF67FFFF3FF03
:101EE000FFDFFFFFFEFFFC3FFFFFFFFFFFFFF3FFF2
:101EF000FFDFFFFFFEFFFE7FFFFFFFFFFFFFF3FFA0
:101F0000FFDFFFFFFEFFFE7FFFFFFF003FFFF3FF4E
:101F1000FFDFFFFFFEFFFE7FFFFFFF003FFFF3FF3E
:101F2000FE1FFFFFFEFFFE7FFFFFFFFFFFFFF3FF30
:101F3000FE1FFFFFFEFFFE7FFFFFFFFFFFFFF3FF20
:101F4000C0DFFFFFFEFFFE7FFFFFFFF07FFFF3FF1D
:101F500081DFFFFFFEFFFE7FFFFFFFE03FFFF3FC9F
:101F60000FDFFFFFFEFFFE7FFFFFFFEFBFFFF3E08E
:101F70007FDFFFFFFEFFF00FFFFFFFF77FFFF01F88
:101F8000FE1FFFFFFEFF0FF8FFFFFFE007FFF01F40
:101F9000FC1FFFFFFEFF0FFCFFFFFFE007FFF3FF4B
:101FA000E0DFFFFFFEFE7FFF3FFFFFF67FFFFFFF4B
:101FB000C1DFFFFFFEFEFFFF1FFFFFE43FFFFFFF4C
:101FC000C3DFFFFFFEF8FFFF9FFFFFECBFFFFFFF38
:101FD00087DFFFFFFEF8FFFF9FFFFFE9BFFFFFFF67
:101FE0008FDFFFFFFEF9FC7FDFFFFFE13FFFFFFF19
:101FF0008FDFFFFFFEF9F87FDFFFFFF37FFFFFFFBB
:102000008FDFFFFFFEF9FBBFDFFFFFFFFFFFFFFFDB
:102010008FDFFFFFFEF9FBBFDFFFFF203FFFFFFF6A
:102020008FDFFFFFFEF9FBBFDFFFFF203FFFFFFF5A
:10203000C3DFFFFFFEFBFBBFDFFFFFFFFFFFFFFF75
:10204000C1DFCFCF8EF9FC7FDFFFFFFFFFFFFFFF78
:10205000E05F87870EF8FFFF9FFFFF003FFFFFFF56
:10206000FE1F333776FC7FFF1FFFFF003FFFFFFFA0
:10207000FFDF333776FEFFFF3FFFFFF77FFFFFFFF6
:10208000FFDF87870EFF3FFC7FFFFFEFBFFFFFFFF4
:10209000FFDFCFCF8EFF0FF87FFFFFE03FFFFFFF97
:1020A000FFDFFFFFFEFF8003FFFFFFF07FFFFF80EA
:1020B0000000000000FFE007FFFFFFFFFFFFFF80C1
:1020C0000000000000FFFC7FFFFFFFFEFFFFFF9FFF
:1020D000FFFFFFFFFEFFFCFFFFFFFFFEFFFFFF9F75
:1020E000FFFFFFFFFEFFFCFFFFFFFFFEFFFFFF9F65
:1020F000FFFFFFFFFEFFFCFFFFFFFFFFFFFFFF9F54
:10210000FFFFFFFFFEFFF00FFFFFFF003FFFFF9FFE
:10211000FFFFFFFFFEFFC3C7FFFFFF003FFFFF986A
:10212000001FFFFFFEFF87F1FFFFFFF77FFFFF9814
:10213000001FFFFFFEFF0FF8FFFFFFEFBFFFFF983D
:10214000FFDFFFFFFEFC7FFF3FFFFFE03FFFFF9849
:10215000FFDFFFFFFEF8FFFF3FFFFFF07FFFFF986D
:10216000FFDFFFFFFEF9FFFF9FFFFFFFFFFFFF986D
:10217000FFDFFFFFFEF9FC7F9FFFFFFFFFFFFF98E0
:10218000FFDFFFFFFEF9F83F9FFFFFF07FFFFF98A3
:10219000FFDFFFFFFEFBFB9FDFFFFFE03FFFFF983E
:1021A000FFDFFFFFFEFBFB9FDFFFFFEFBFFFFF989F
:1021B000FFDFFFFFFEFBFB9FDFFFFFEFBFFFFF988F
:1021C000FFDFFFFFFEFBFB9FDFFFFFE03FFFFF980E
:1021D000001FFFFFFEF9FC3FDFFFFFF07FFFFF98CE
:1021E000001FFFFFFEF9FC7F9FFFFFFFFFFFFF9F28
:1021F000FFFFFFFFFEF9FFFF9FFFFFFFFFFFFF9FB6
:10220000FFFFFFFFFEFCFFFF1FFFFFF07FFFFF9FB1
:10221000FFFFFFFFFEFCFFFF3FFFFFE03FFFFF9FD1
:10222000FFFFFFFFFEFF8FF8FFFFFFEFBFFFFF9FE6
:10223000C000000000FFCFF1FFFFFFEFBFFFFF9FD7
:102240008000000000FFC3C3FFFFFFE03FFFFF9FD0
:102250000FBFFEE7FEFFF007FFFFFFF07FFFFF98D5
:102260007FBFFEE7FEFFFCFFFFFFFFFFFFFFFF90CA
:10227000FFBFFEE7FEFFFCFFFFFFFFFFFFFFFF8347
:10228000FFBFFEE7FEFFF83FFFFFFFE00FFFFF8FFE
:10229000FFBF0EE7FEFFC387FFFFFFE007FFFF9FC3
:1022A000FFBEF6E7FEFF87F1FFFFFFF777FFFFFFB7
:1022B000FFBEF6E7FEFF0FF8FFFFFFEFB7FFFFFFE0
:1022C000FFBEF6E7FEFE3FFE7FFFFFE037FFFFFFAA
:1022D000FFBF0EE7FEFCFFFF7FFFFFF06FFFFFFF7A
:1022E000FFBF9EE7FEF8FFFF3FFFFFFFFFFFFFFF7F
:1022F000FFBFFEE7FEF8FFFF9FFFFFFF3FFFFFFF6F
:10230000FFBFFEE7FEF9F83F9FFFFFFF3FFFFFFF24
:10231000FFBFFEE7FEFBF91FDFFFFFFFFFFFFFFF31
:10232000FFBF0EE7FEFBFB9FDFFFFFE7FFFFFFFFA7
:10233000FFBEF6E7FEFBFB9FDFFFFFE0FFFFFFFFB7
:10234000FFBEF6E7FEFBFB9FDFFFFFF83FFFFFFF4F
:10235000FFBEF6E7FEFBF83F9FFFFFFE3FFFFFFFDC
:10236000FFBF0EE7FEF9FC7F9FFFFFF07FFFFFFF3F
:10237000FFBF9EE7FEF9FFFF9FFFFFE3FFFFFFFFA9
:10238000FFBFFEE7FEF8FFFF1FFFFFF07FFFFFFF2D
:10239000FFBFFEE7FEFC7FFF3FFFFFFE3FFFFFFFAB
:1023A000FFBFFEE7FEFE3FFE7FFFFFF83FFFFFFFA0
:1023B000FFBF9EE7FEFF1FFC7FFFFFE0FFFFFFFF69
:1023C000FFBEF6E7FEFF83C0FFFFFFE7FFFFFFFF53
:1023D000FFBEF6E7FEFFE001FFFFFFE7FFFFFFFFA5
:1023E000FFBF0EE7FEFFFC7FFFFFFFE0FFFFFFFFE9
:1023F000FFBF9EE7FE00007FFFFFFFF83FFFFFFFEC
:10240000FFBFFEE7FE00007FFFFFFFFE3FFFFFFF75
:10241000FFBFFEE7FEFFFFFFFFFFFFF07FFFFFFFB5
:10242000FF80000000FFFFFFFFFFFFE3FFFFFFFF54
:10243000FFFFFFFFFFFFFFFFFFFFFFF07FFFFFFF3B
:10244000FFFFFFFFFFFFFFFFFFFFFFFE3FFFFFFF5D
:10245000FFFFFFFFFFFFFFFFFFFFFFF83FFFFFFF53
:10246000FFFFFFFFFFFFFFFFFFFFFFE0FFFFFFFF9B
:10247000FFFFFFFFFFFFFFFFFFFFFFE7FFFFFFFF84
:10248000FFFFFFFFFFFFFFFFFFFFFFE7FFFFFFFF74
:10249000FFFFFFFFFFFFFFFFFFFFFFE0FFFFFFFF6B
:1024A000FFFFFFFFFFFFFFFFFFFFFFF83FFFFFFF03
:1024B000FFFFFFFFFFFFFFFFFFFFFFFE3FFFFFFFED
:1024C000FFFFFFFFFFFFFFFFFFFFFFF07FFFFFFFAB
:1024D000FFFFFFFFFFFFFFFFFFFFFFE3FFFFFFFF28
:1024E000FFFFFFFFFFFFFFFFFFFFFFF07FFFFFFF8B
:1024F000FFFFFFFFFFFFFFFFFFFFFFFE3FFFFFFFAD
:10250000FFFFFFFFFFFFFFFFFFFFFFF83FFFFFFFA2
:10251000FFFFFFFFFFFFFFFFFFFFFFE0FFFFFFFFEA
:10252000FFFFFFFFFFFFFFFFFFFFFFE7FFFFFFFFD3
:10253000FFFFFFFFFFFFFFFFFFFFFFFFFFFFFFFFAB
:10254000FFFFFFFFFFFFFFFFFFFFFFFFFFFFFFFF9B
:10255000FFFFFFFFFFFFFFFFFFFFFFFFFFFFFFFF8B
:10256000FFFFFFFFFFFFFFFFFFFFFFFFFFFFFFFF7B
:10257000FFFFFFFFFFFFFFFFFFFFFFFFFFFFFFFF6B
:10258000FFFFFFFFFFFFFFFFFFFFFFFFFFFFFFFF5B
:10259000FFFFFFFFFFFFFFFFFFFFFFFFFFFFFFFF4B
:1025A000FFFFFFFFFFFFFFFFFFFFFFFFFFFFFFFF3B
:1025B000FFFFFFFFFFFFFFFFFFFFFFFFFFFFFFFF2B
:1025C000FFFFFFFFFFFFFFFFFFFFFFFFFFFFFFFF1B
:1025D000FFFFFFFFFFFFFFFFFFFFFFFFFFFFFFFF0B
:1025E000FFFFFFFFFFFFFFFFFFFFFFFFFFFF0000F9
:1025F00000000000000000FFFFFFFFFFFFFF0000E2
:1026000000000000000000FFFFFFFFFFFFFF0000D1
:1026100000000000000000FFFFFFFFFFFFFF0000C1
:1026200000000000000000FFFFFFFFFFFFFF0000B1
:1026300000000000000000FFFFFFFFFFFFFF0000A1
:1026400000000000000000FFFFFFFFFFFFFF000091
:1026500000000000000000FFFFFFFFFFFFFF000081
:1026600000000000000000FFFFFFFFFFFFFF000071
:1026700000000000000000FFFFFFFFFFFFFF000061
:1026800000000000000000FFFFFFFFFFFFFF000051
:1026900000000000000000FFFFFFFFFFFFFF000041
:1026A00000000000000000FFFFFFFFFFFFFF000031
:1026B00000000000000000FFFFFFFFFFFFFF009889
:1026C00000000000000000FFFFFFFFFFFFFF0124EC
:1026D0000001FC00000000FFFFFFFFFFFFFF0124DF
:1026E000000FFFC0000000FFFFFFFFFFFFFF0124FE
:1026F000001FFFF0000000FFFFFFFFFFFFFF00C80B
:10270000003FFFF8000000FFFFFFFFFFFFFF00009A
:10271000007C0E7C000000FFFFFFFFFFFFFF0000BA
:102720000070071E000000FFFFFFFFFFFFFF00E833
:1027300000E0030F000000FFFFFFFFFFFFFF012489
:1027400000E00307800000FFFFFFFFFFFFFF012401
:1027500000E00383800000FFFFFFFFFFFFFF012475
:1027600000E00383800000FFFFFFFFFFFFFF00F892
:1027700000E00383800000FFFFFFFFFFFFFF00007A
:1027800000700781C00000FFFFFFFFFFFFFF000098
:10279000007C1F01C00000FFFFFFFFFFFFFF0FFCD9
:1027A000003FFF01C00000FFFFFFFFFFFFFF000031
:1027B000003FFE01C00000FFFFFFFFFFFFFF00FC26
:1027C000000FFC00000000FFFFFFFFFFFFFF0128DC
:1027D0000003F000000000FFFFFFFFFFFFFF0124E8
:1027E00000000000000000FFFFFFFFFFFFFF0124CB
:1027F00000000000000000FFFFFFFFFFFFFF009848
:10280000000000F8000000FFFFFFFFFFFFFF0000D7
:10281000000F01FE000000FFFFFFFFFFFFFF0000B1
:10282000003FC3FF000000FFFFFFFFFFFFFF009816
:10283000003FE7FF800000FFFFFFFFFFFFFF0124D5
:10284000007FFF87800000FFFFFFFFFFFFFF0124E5
:1028500000F07F03C00000FFFFFFFFFFFFFF012428
:1028600000E03E01C00000FFFFFFFFFFFFFF00C8C8
:1028700000E01C01C00000FFFFFFFFFFFFFF0000A2
:1028800000E01C01C00000FFFFFFFFFFFFFF000092
:1028900000E03C01C00000FFFFFFFFFFFFFF000062
:1028A00000E03C01C00000FFFFFFFFFFFFFF000052
:1028B0000070FE03C00000FFFFFFFFFFFFFF0000EE
:1028C000007FF787800000FFFFFFFFFFFFFF000092
:1028D000003FE7FF800000FFFFFFFFFFFFFF00E872
:1028E000001FC3FF004000FFFFFFFFFFFFFF0124A9
:1028F000000781FE004800FFFFFFFFFFFFFF0124EC
:1029000000000078003FE0FFFFFFFFFFFFFF012412
:1029100000000000004800FFFFFFFFFFFFFF00F87E
:1029200000000003804800FFFFFFFFFFFFFF0000E3
:1029300000000007803FE0FFFFFFFFFFFFFF00FCFC
:1029400000000007C00800FFFFFFFFFFFFFF0100BE
:1029500000000007800000FFFFFFFFFFFFFF0100F6
:1029600000000003800380FFFFFFFFFFFFFF0080E8
:1029700000000000000440FFFFFFFFFFFFFF00FC1E
:1029800000000000000820FFFFFFFFFFFFFF010025
:1029900000000000000820FFFFFFFFFFFFFF010015
:1029A00000000000000440FFFFFFFFFFFFFF00806A
:1029B000000F00F8000380FFFFFFFFFFFFFF01FC97
:1029C000003FC1FE000000FFFFFFFFFFFFFF000010
:1029D000007FE3FF000000FFFFFFFFFFFFFF00009D
:1029E000007FF7FF000000FFFFFFFFFFFFFF09FC74
:1029F00000F877078003C0FFFFFFFFFFFFFF000025
:102A000000F03E03800420FFFFFFFFFFFFFF0000F8
:102A100000E03E01C02420FFFFFFFFFFFFFF010495
:102A200000E01C01C03420FFFFFFFFFFFFFF07FC99
:102A300000E01C01C00FC0FFFFFFFFFFFFFF010010
:102A400000E01C01C00200FFFFFFFFFFFFFF0000CE
:102A500000701C01C01D80FFFFFFFFFFFFFF002073
:102A600000700001C02260FFFFFFFFFFFFFF00209A
:102A700000780003802220FFFFFFFFFFFFFF002000
:102A800000000003802200FFFFFFFFFFFFFF0FFC9D
:102A900000000001801C00FFFFFFFFFFFFFF00841C
:102AA00000000000000000FFFFFFFFFFFFFF010428
:102AB00000000000000000FFFFFFFFFFFFFF010418
:102AC00000000000000000FFFFFFFFFFFFFF00F815
:102AD00000000000001F80FFFFFFFFFFFFFF00005E
:102AE00000000000002040FFFFFFFFFFFFFF00008D
:102AF00000000000004020FFFFFFFFFFFFFF00E895
:102B0000007FFFFFC02040FFFFFFFFFFFFFF01240A
:102B1000007FFFFFC01F80FFFFFFFFFFFFFF0124BB
:102B2000007FFFFFC00000FFFFFFFFFFFFFF01244A
:102B3000007FFFFFC00100FFFFFFFFFFFFFF00F866
:102B400000300000003FE0FFFFFFFFFFFFFF00003D
:102B500000380000001100FFFFFFFFFFFFFF000033
:102B600000380000000900FFFFFFFFFFFFFF010426
:102B7000001C0000000700FFFFFFFFFFFFFF07FC36
:102B800000180000000100FFFFFFFFFFFFFF010032
:102B900000000000000000FFFFFFFFFFFFFF00003C
:102BA00000000000000000FFFFFFFFFFFFFF09FC27
:102BB00000000000000000FFFFFFFFFFFFFF00001C
:102BC00000000000000000FFFFFFFFFFFFFF00FC10
:102BD00000000000000000FFFFFFFFFFFFFF0100FB
:102BE000000000F8000000FFFFFFFFFFFFFF0100F3
:102BF000003003FC000000FFFFFFFFFFFFFF00802D
:102C0000003807FE000000FFFFFFFFFFFFFF00FC92
:102C100000700FFF000000FFFFFFFFFFFFFF01003C
:102C200000700F07000000FFFFFFFFFFFFFF010024
:102C300007F01E03F80000FFFFFFFFFFFFFF00800B
:102C400007F01E03F80000FFFFFFFFFFFFFF01FC7E
:102C500007F03C03F80000FFFFFFFFFFFFFF00004D
:102C600000787C03800000FFFFFFFFFFFFFF0000F4
:102C7000003C7803800000FFFFFFFFFFFFFF09FC1F
:102C8000003FF803800000FFFFFFFFFFFFFF000091
:102C9000001FF007000000FFFFFFFFFFFFFF000421
:102CA000000FE007000000FFFFFFFFFFFFFF000431
:102CB0000007C007000000FFFFFFFFFFFFFF000449
:102CC00000000000000000FFFFFFFFFFFFFF000407
:102CD00000000000000000FFFFFFFFFFFFFF0004F7
:102CE00000000000000000FFFFFFFFFFFFFF0FFCE0
:102CF00000000000000000FFFFFFFFFFFFFF0000DB
:102D000000000000000000FFFFFFFFFFFFFF0000CA
:102D100000000000000000FFFFFFFFFFFFFF0000BA
:102D200000000000000000FFFFFFFFFFFFFF0000AA
:102D300000000000000000FFFFFFFFFFFFFF00009A
:102D400000000000000000FFFFFFFFFFFFFF00008A
:102D500000000000000000FFFFFFFFFFFFFF00007A
:102D600000000000000000FFFFFFFFFFFFFF00006A
:102D700000000000000000FFFFFFFFFFFFFF00005A
:102D800000000000000000FFFFFFFFFFFFFF00004A
:102D900000000000000000FFFFFFFFFFFFFF00003A
:102DA00000000000000000FFFFFFFFFFFFFF00002A
:102DB00000000000000000FFFFFFFFFFFFFF00001A
:102DC00000000000000000FFFFFFFFFFFFFF00000A
:102DD00000000000000000FFFFFFFFFFFFFFFFFFFC
:102DE000FFFFFFFFFFFFFFFFFFFFFFFFFFFFFFFFF3
:102DF000FFFFFFFFFFFFFFFFFFFFFFFFFFFFFFFFE3
:102E0000FFFFFFFFFFFFFFFFFFFFFFFFFFFFFFFFD2
:102E1000FFFFFFFFFFFFFFFFFFFFFFFFFFFFFFFFC2
:10319000FFFFFFFFFFFFFFFFFFFC0FFFFFFFFFFF32
:1031A000FFFFFFFFFFFFFFFFFFFBFFFFFFFFFFFF33
:1031B000FFFFFFFFFFFFFFFFFFFBFFFFFFFFFFFF23
:1031C000FFFFFFFFFFFFFFFFFFFDFFFFFFFFFFFF11
:1031D000FFFFFFFFFFFFFFFFFFF80FFFFFFFFFFFF6
:1031E000FFFFFFFFFFFFFFFFFFFFFFFFFFFFFFFFEF
:1031F000FFFFFFFFFFFFFFFFFFFFFFFFFFFFFFFFDF
:10320000FFFFFFFFFFFFFFFFFFD80FFFFFFFFFFFE5
:10321000FFFFFFFFFFFFFFFFFFFFFFFFFFFFFFFFBE
:10322000FFFFFFFFFFFFFFFFFFFC0FFFFFFFFFFFA1
:10323000FFFFFFFFFFFFFFFFFFFB5FFFFFFFFFFF42
:10324000FFFFFFFFFFFFFFFFFFFB6FFFFFFFFFFF22
:10325000FFFFFFFFFFFFFFFFFFFB6FFFFFFFFFFF12
:10326000FFFFFFFFFFFFFFFFFFFD9FFFFFFFFFFFD0
:10327000FFFFFFFFFFFFFFFFFFFFFFFFFFFFFFFF5E
:10328000FFFFFFFFFFFFFFFFFFFBFFFFFFFFFFFF52
:10329000FFFFFFFFFFFFFFFFFFFDFFFFFFFFFFFF40
:1032A000FFFFFFFFFFFFFFFFFFF80FFFFFFFFFFF25
:1032B000FFFFFFFFFFFFFFFFFFFFFFFFFFFFFFFF1E
:1032C000FFFFFFFFFFFFFFFFFFFBFFFFFFFFFFFF12
:1032D000FFFFFFFFFFFFFFFFFFFBEFFFFFFFFFFF12
:1032E000FFFFFFFFFFFFFFFFFFE01FFFFFFFFFFFED
:1032F000FFFFFFFFFFFFFFFFFFFBFFFFFFFFFFFFE2
:10330000FFFFFFFFFFFFFFFFFFFFFFFFFFFFFFFFCD
:10331000FFFFFFFFFFFFFFFFFFFFFFFFFFFFFFFFBD
:10332000FFFFFFFFFFFFFFFFFFFBFFFFFFFFFFFFB1
:10333000FFFFFFFFFFFFFFFFFFFC7FFFFFFFFFFF20
:10334000FFFFFFFFFFFFFFFFFFFF8FFFFFFFFFFFFD
:10335000FFFFFFFFFFFFFFFFFFFF97FFFFFFFFFFE5
:10336000FFFFFFFFFFFFFFFFFFFC7BFFFFFFFFFFF4
:10337000FFFFFFFFFFFFFFFFFFFBFBFFFFFFFFFF65
:10338000FFFFFFFFFFFFFFFFFFFFFFFFFFFFFFFF4D
:10339000FFFFFFFFFFFFFFFFFFFE3FFFFFFFFFFFFE
:1033A000FFFFFFFFFFFFFFFFFFFDDFFFFFFFFFFF4F
:1033B000FFFFFFFFFFFFFFFFFFFBEFFFFFFFFFFF31
:1033C000FFFFFFFFFFFFFFFFFFFBEFFFFFFFFFFF21
:1033D000FFFFFFFFFFFFFFFFFFFDDFFFFFFFFFFF1F
:1033E000FFFFFFFFFFFFFFFFFFFE3FFFFFFFFFFFAE
:1033F000FFFFFFFFFFFFFFFFFFDFFFFFFFFFFFFFFD
:10340000FFFFFFFFFFFFFFFFFFDFFFFFFFFFFFFFEC
:10341000FFFFFFFFFFFFFFFFFFDFFFFFFFFFFFFFDC
:10342000FFFFFFFFFFFFFFFFFFC00FFFFFFFFFFFDB
:10343000FFFFFFFFFFFFFFFFFFDFFFFFFFFFFFFFBC
:10344000FFFFFFFFFFFFFFFFFFDFFFFFFFFFFFFFAC
:10345000FFFFFFFFFFFFFFFFFFDFFFFFFFFFFFFF9C
:10346000FFFFFFFFFFFFFFFFFFFFFFFFFFFFFFFF6C
:10347000FFFFFFFFFFFFFFFFFFFFFFFFFFFFFFFF5C
:10348000FFFFFFFFFFFFFFFFFFFFFFFFFFFFFFFF4C
:10349000FFFFFFFFFFFFFFFFFFFFFFFFFFFFFFFF3C
:10387000FFFFFFFFFFF7FFFFFFFFFFFFFFFFFFFF60
:10388000FFFFFFFFFFF7FFFFFFFFFFFFFFFFFFFF50
:10389000FFFFFFFFFFF7FFFFFFFFFFFFFFFFFFFF40
:1038A000FFFFFFFFFFF7FFFFFFFFFFFFFFFFFFFF30
:1038B000FFFFFFFFFFF7FFFFFFFFFFFFFFFFFFFF20
:1038C000FFFFFFFFFFF7FFFFFFFFFFFFFFFFFFFF10
:1038D000FFFFFFFFFFF7FFFFFFFFFFFFFFFFFFFF00
:1038E000FFFFFFFFFFF7FFFFFFFFFFFFFFFFFFFFF0
:1038F000FFFFFFFFFFF7FFFFFFFFFFFFFFFFFFFFE0
:10390000FFFFFFFFFFF7FFFFFFFFFFFFFFFFFFFFCF
:10391000FFFFFFFFFFF7FFFFFFFFFFFFFFFFFFFFBF
:10392000FFE00FFFFFF7FFFFFFFFFFFFFFFFFFFFBE
:10393000FF8001FFFFF7FFFFFFFFFFF9FFFFFFFF22
:10394000FC1FF83FFFF7FFFFFFFFFFF87FFFFFFFC0
:10395000F8FFFE1FFFF7FFFFFFFFFFF80FFFFFFF5E
:10396000F3FFFF0FFFF7FFFFFFFFFFF903FFFFFF6D
:10397000C7FFFFE7FFF7FFFFFFFFFFFFE07FFFFF4E
:103980009FFFFFE3FFF7FFFFFFFFFFF9800FFFFF40
:103990001F7FFFF1FFF7FFFFFFFFFFF80003FFFFAF
:1039A0003F1FFFF9FFF7FFFFFFFFFFF801E3FFFEF7
:1039B0007F8FFFFCFFF7FFFFF03FFFF81FE3FFFEE5
:1039C000FFC3FFFCFFF7FFC1C01FFFF8FFE3FFFCD1
:1039D000FFC0FFFE7FF7FF80800FFFF9FFFFFFFDB5
:1039E000FFE03FFF7FF7FF008007FFFFFE7FFFF94B
:1039F000FFF01FFF3FF7FE000787FFFFFE7FFFF985
:103A0000FFF007FF3FF7FE1C1FE3FFFC007FFFFBFB
:103A1000FFF801FFBFF7FE3E3FE3FFFC007FFFF32F
:103A2000FFF8007F9FF7FE7F3FF3FFF800FFFFF3F3
:103A3000FFFC003F9FF7FE7F1FF3FFF8CC7FFFF3F3
:103A4000FFFC000F9FF7FE731FF3FFF9C67FFFF324
:103A5000FFFE00079FF7FE331FE3FFF8E67FFFF34B
:103A6000FFFC000F9FF7FF03F9C3FFF8607FFFF330
:103A7000FFFC003F9FF7FF03F807FFF8607FFFF3AD
:103A8000FFF800FF9FF7FF87F807FFFC70FFFFFBC1
:103A9000FFF003FF9FF7FFFFFC1FFFFFFFFFFFF992
:103AA000FFF007FF3FF7FFFFFFFFFFFFFE7FFFF97C
:103AB000FFE01FFF3FF7FFE07F0FFFFFFC7FFFFDF1
:103AC000FFE07FFE7FF7FF803F03FE00007FFFFCEB
:103AD000FFC0FFFE7FF7FF000F83FE00007FFFFCAB
:103AE000FFC3FFFCFFF7FF0007C3FE00007FFFFEE0
:103AF0007F8FFFFCFFF7FE1E03C3FF38FC7FFFFF35
:103B00003F3FFFF9FFF7FE3F81C3FF39FE7FFFFF15
:103B10003F7FFFF3FFF7FE7FE1C3FFF9FE7FFFFF6B
:103B20008FFFFFE7FFF7FE7F30C3FFF8FC7FFFFF4B
:103B3000C7FFFFC7FFF7FE7F3C43FFF8787FFFFF1B
:103B4000E3FFFF9FFFF7FE3E3E03FFFC00FFFFFF8A
:103B5000F8FFFE3FFFF7FF1C3F03FFFC00FFFFFFE6
:103B6000FE1FF07FFFF7FF003F83FFFF03FFFFFF14
:103B7000FF0003FFFFF7FF807FC3FFFFFE7FFFFF14
:103B8000FFE00FFFFFF7FFC0FFE3FFFFFE7FFFFF38
:103B9000FFFFFFFFFFF7FFFFFFF3FFFC007FFFFFCB
:103BA000FFFFFFFFFFF7FFFFFFFFFFF8007FFFFFB3
:103BB000FFFFFFFFFFF7FFFFFFFFFFF8007FFFFFA3
:103BC000FFFFFFFFFFF7FFFFFFFFFFF8FE7FFFFF95
:103BD000FFFFFFFFFFF7FFFE1F87FFF9FE7FFFFFDD
:103BE000FFFFFFFFFFF7FFFE0F83FFF8FE7FFFFFE2
:103BF000FFFFFFFFFFF7FFFE0F83FFFCFE7FFFFFCE
:103C0000FFFFFFFFFFF7FFFE1F87FFF8007FFFFFAB
:103C1000FFFFFFFFFFF7FFFFFFFFFFF8007FFFFF42
:103C2000FFFFFFFFFFF7FFFFFFFFFFF8007FFFFF32
:103C3000FFFFFFFFFFF7FFFFFFFFFFFCFE7FFFFF20
:103C4000FFFFFFFFFFF7FFFFFFFFFFFCFE7FFFFF10
:103C5000FFFFFFFFFFF7FFE07F0FFFFFFFFFFFFF0B
:103C6000FFFFFFFFFFF7FF803F03FFFF03FFFFFFA3
:103C7000FFFFFFFFFFF7FF000F83FFFE01FFFFFFC6
:103C8000FFF03FFFFFF7FF0007C3FFFC00FFFFFF50
:103C9000FF8003FFFFF7FE1E03C3FFF8787FFFFFDF
:103CA000FC1FF0FFFFF7FE3F81C3FFF8FC7FFFFF23
:103CB000F8FFFE3FFFF7FE7FE1C3FFF9FE7FFFFF46
:103CC000E3FFFF0FFFF7FE7F30C3FFF9FE7FFFFF2B
:103CD000CFFFFFCFFFF7FE7F3C43FFF8FC7FFFFFE6
:103CE0009FFFFFF3FFF7FE3E3E03FFF8787FFFFFE5
:103CF0009FFFFDF3FFF7FF1C3F03FFFC00FFFFFFEB
:103D00003FFFF3F9FFF7FF003F83FFFE01FFFFFED8
:103D10007FFFE3FCFFF7FF807FC3FFFF03FFFFFE92
:103D2000FFFF87FCFFF7FFC0FFE3FFFFFFFFFFFC84
:103D3000FFFE07FE7FF7FFFFFFF3FE7FFE7FFFFD25
:103D4000FFFC0FFF7FF7FFFFFFFFFE7FFE7FFFF906
:103D5000FFE00FFF3FF7FFFFFFFFFE3FFC7FFFF994
:103D6000FFC01FFF3FF7FFFFFFFFFE00007FFFFBCD
:103D7000FF003FFF3FF7FFFFFFF3FE00007FFFFB69
:103D8000FC003FFF9FF7FFFFFFF3FE00007FFFF304
:103D9000F8007FFF9FF7FFFFFFE3FE03FC7FFFF3C9
:103DA000E0007FFF9FF7FE000003FF80FE7FFFF330
:103DB000C000FFFF9FF7FE000003FFF03E7FFFF310
:103DC000E000FFFF9FF7FE000003FFFC07FFFFF38B
:103DD000F8007FFF9FF7FF000003FFFF01FFFFF3E5
:103DE000FC003FFFBFF7FF3FFFE3FFFFE07FFFF96E
:103DF000FF003FFFBFF7FF3FFFF3FFFF007FFFF92B
:103E0000FFC01FFF3FF7FF3FFFF3FFFC01FFFFF97C
:103E1000FFF01FFF3FF7FFFFFFFFFFE007FFFFF986
:103E2000FFF80FFE7FF7FFFFFFFFFF801E7FFFFC05
:103E3000FFFE07FE7FF7FFFFFFFFFE00FE7FFFFC98
:103E4000FFFF87FEFFF7FFFFFFFFFE03FC7FFFFE84
:103E50007FFFE3FCFFF7FFFFFFFFFE00007FFFFE99
:103E60007FFFF3F9FFF7FFFFFFFFFE00007FFFFF7B
:103E70001FFFFDF3FFF7FFFFFFFFFE3FFC7FFFFF8C
:103E80008FFFFFE3FFF7FFFFFFFFFE7FFE7FFFFFD8
:103E9000C7FFFFCFFFF7FFFFFFFFFE7FFE7FFFFFA4
:103EA000F1FFFF8FFFF7FFFFFFFFFFFFFFFFFFFFA8
:103EB000F8FFFE3FFFF7FFFFFFFFFFFFFFFFFFFFE2
:103EC000FE1FF07FFFF7FFFFFFFFFFFFFFFFFFFF7A
:103ED000FF8003FFFFF7FFFFFFFFFFFFFFFFFFFF75
:103EE000FFF03FFFFFF7FFFFFFFFFFFFFFFFFFFFB9
:103EF000FFFFFFFFFFF7FFFFFFFFFFFFFFFFFFFFDA
:103F0000FFFFFFFFFFF7FFFFFFFFFFFFFFFFFFFFC9
:103F1000FFFFFFFFFFF7FFFFFFFFFFFFFFFFFFFFB9
:103F2000FFFFFFFFFFF7FFFFFFFFFFFFFFFFFFFFA9
:103F3000FFFFFFFFFFF7FFFFFFFFFFFFFFFFFFFF99
:103F4000FFFFFFFFFFF7FFFFFFFFFFFFFFFFFFFF89
:103F5000FFFFFFFFFFF7FFFFFFFFFFFFFFFFFFFF79
:103F6000FFFFFFFFFFF7FFFFFFFFFFFFFFFFFFFF69
:103F7000FFFFFFFFFFF7FFFFFFFFFFFFFFFFFFFF59
:103F8000FFFFFFFFFFF7FFFFFFFFFFFFFFFFFFFF49
:103F9000FFFFFFFFFFF7FFFFFFFFFFFFFFFF000037
:103FA0000000000000000000000000000000FFFF13
:103FB000FFFFFFFFFFF7FFFFFFFFFFFFFFFFFFFF19
:103FC000FFFFFFFFFFF7FFFFFFFFFFFFFFFFFFFF09
:103FD000FFFFFFFFFFF7FFFFFFFFFFFFFFFFFFFFF9
:103FE000FFFFFFFFFFF7FFFFFFFFFFFFFFFFFFFFE9
:103FF000FFFFFFFFFFF7FFFFFFFFFFFFFFFFFFFFD9
:10400000FFFFFFFFFFF7FFFFFFFFFFFFFFFFFFFFC8
:10401000FFFFFFFFFFF7FFFFFFFFFFFFFFFFFFFFB8
:10402000FFFFFFFFFFF7FFFFFFFFFFFFFFFFFFFFA8
:10403000FFFFFFFFFFF7FFFFFFFFFFFFFFFFFFFF98
:10404000FFFFFFFFFFF7FFFFFFFFFFFFFFFFFFFF88
:10405000FFFFFFFFFFF7FFFFFFFFFFFFFFFFFFFF78
:10406000FFFFFFFFFFF7FFFFFFFFFFFFFFFFFFFF68
:10407000FFFFFFFFFFF7FFFFFFFFFFFFFFFFFFFF58
:10408000FFFFFFFFFFF7FFFFFFFFFFFFFFFFFFFF48
:10409000FFFFFFFFFFF7FFFFFFFFFFFFFFFFFFFF38
:1040A000FFFFFFFFFFF7FFFFFFFFFFFFFFFFFFFE29
:1040B000000000000FF7FFFFFFFFFFFFFFFFFFFE05
:1040C000000000000FF7FFFFFFFFFFFFFFFFFFFEF5
:1040D0001FFFFFFF8FF7FFFFFFFFFFFFFFFFFFFE49
:1040E0001FFFFFFF0FF7FFFFFFFFFFFFFFFFFFFEB9
:1040F0000FFFFFFE0FF7FFFFFFFFFFFFFFFFFFFEBA
:1041000047FFFFFC4FF7FFFFFFFFFFFFFFFFFFFE33
:1041100063FFFFF8CFF7FFFFFFFFFFFFFFFFFFFE8B
:1041200071FFFFF1CFF7FFFFFFFFFFFFFFFFFFFE74
:1041300078FFFFE3CFF7FFFFFFFFFFFFFFFFFFFE6B
:104140007C7FFFC7CFF7FFFFFFFFFFFFFFFFFFFEF3
:104150007E3FFF8FCFF7FFFFFFFFFFFFFFFFFFFE59
:104160007F1FFF1FCFF7FFFFFFFFFFFFFFFFFFFED8
:104170007F8FFE3FCFF7FFFFFFFFFFFFFFFFFFFE39
:104180007FC7FC7FCFF7FFFFFFFFFFFFFFFFFFFEB3
:104190007FE3F8FFCFF7FFFFFFFFFFFFFFFFFFFE0B
:1041A0007FF1F1FFCFF7FFFFFFFFFFFFFFFFFFFEF4
:1041B0007FF8E3FFCFF7FFFFFFFFFFFFFFFFFFFEEB
:1041C0007FFC47FFCFF7FFFFFFFFFFFFFFFFFFFE73
:1041D0007FFE0FFFCFF7FFFFFFFFFFFFFFFFFFFE99
:1041E0007FFF1FFFCFF7FFFFFFFFFFFFFFFFFFFE78
:1041F0007FFF8FFFCFF7FFFFFFFFFFFFFFFFFFFEF8
:104200007FFFC7FFCFF7FFFFFFFFFFFFFFFFFFFEAF
:104210007FFFE3FFCFF7FFFFFFFFFFFFFFFFFFFE83
:104220007FFFF1FFCFF7FFFFFFFFFFFFFFFFFFFE65
:104230007FFFF9FFCFF7FFFFFFFFFFFFFFFFFFFE4D
:104240007FFFFCFFCFF7FFFFFFFFFFFFFFFFFFFE3A
:104250007FFFFCFFCFF7FFFFFFFFFFFFFFFFFFFE2A
:104260007FFFFCFFCFF7FFFFFFFFFFFFFFFFFFFE1A
:104270007FFFF9FFCFF7FFFFFFFFFFFFFFFFFFFE0D
:104280007FFFF1FFCFF7FFFFFFFFFFFFFFFFFFFE05
:104290007FFFE3FFCFF7FFFFFFFFFFFFFFFFFFFE03
:1042A0007FFFC7FFCFF7FFFFFFFFFFFFFFFFFFFE0F
:1042B0007FFF8FFFCFF7FFFFFFFFFFFFFFFFFFFE37
:1042C0007FFF1FFFCFF7FFFFFFFFFFFFFFFFFFFE97
:1042D0007FFE0FFFCFF7FFFFFFFFFFFFFFFFFFFE98
:1042E0007FFC47FFCFF7FFFFFFFFFFFFFFFFFFFE52
:1042F0007FF8E3FFCFF7FFFFFFFFFFFFFFFFFFFEAA
:104300007FF1F1FFCFF7FFFFFFFFFFFFFFFFFFFE92
:104310007FE3F8FFCFF7FFFFFFFFFFFFFFFFFFFE89
:104320007FC7FC7FCFF7FFFFFFFFFFFFFFFFFFFE11
:104330007F8FFE3FCFF7FFFFFFFFFFFFFFFFFFFE77
:104340007F1FFF1FCFF7FFFFFFFFFFFFFFFFFFFEF6
:104350007E3FFF8FCFF7FFFFFFFFFFFFFFFFFFFE57
:104360007C7FFFC7CFF7FFFFFFFFFFFFFFFFFFFED1
:1043700078FFFFE3CFF7FFFFFFFFFFFFFFFFFFFE29
:1043800071FFFFF1CFF7FFFFFFFFFFFFFFFFFFFE12
:1043900063FFFFF8CFF7FFFFFFFFFFFFFFFFFFFE09
:1043A00047FFFFFC4FF7FFFFFF83FFFFFC3FFFFED0
:1043B0000FFFFFFE4FF7FFFFFF38FFFE01FFFFFE7D
:1043C0001FFFFFFE0FF7FFFFFF7EFFFE0FFFFFFE49
:1043D0001FFFFFFF0FF7FFFFFE7E03FE3FFFFFFE05
:1043E000000000000FF7FFFFF0FFF9FE3FFFFFFEA8
:1043F000000000000FF7FFFFC7FFFDFE3FFFFFFFBC
:10440000FFFFFFFFFFF7FFFFBFFFFDFE3FFFFFFFC7
:10441000FFFFFFFFFFF7FFFF7FFFFCFE3FFFFFFFF8
:10442000FFFFFFFFFFF7FFFF7FFFF8001FFFFFFF0A
:10443000FFFFFFFFFFF7FFFF7FFFF8001FFFFFFFFA
:10444000FFFFFFFFFFF7FFFF7FFFF8001FFFFFFFEA
:10445000FFFFFFFFFFF7FFFF7FFFF803FFFFFFFFF7
:10446000FFFFFFFFFFF7FFFF7FFFF87FFFFFFFFF6B
:10447000FFFFFFFFFFF7FFFF7FFFFC7FFFFFFFFF57
:10448000FFFFFFFFFFF7FFFF7FFFFC3FFFFFFFFF87
:10449000FFFFFFFFFFF7FFFE7FFFFC3FFFFFFFFF78
:1044A000FFFFFFFFFFF7FFFDFFFFFE1FFFFFFFFF07
:1044B000FFFFFFFFFFF7FFF9FFFFFE1FFFFFFFFFFB
:1044C000FFFFFFFFFFF7FFFBFFFF801FFFFFFFFF67
:1044D000FFFFFFFFFFF7FFF3FFFC001FFFFFFFFFE2
:1044E000FFFFFFFFFFF7FFF7FFC0001FFFFFFFFF0A
:1044F000FFFFFFFFFFF7FFF7FFC0003FFFFFFFFFDA
:10450000FFFFFFFFFFF7FFF7FFE001BFFFFF000026
:10451000000000000007FFF7FFE03F7FFFFFFFFF05
:10452000FFFFFFFFFFF7FFF7FFF3FEFFFFFFFFFFB8
:10453000FFFFFFFFFFF7FFF3FFFFFE7FFFFFFFFF20
:10454000FFFFFFFFFFF7FFF9FFFFFF7E3FFFFFFFCA
:10455000FFFFFFFFFFF7FFFCFFFFFFB00FFFFFFFB5
:10456000FFFFFFFFFFF7FFFEFFFFFF8003FFFFFFDF
:10457000FFFFFFFFFFF7FFFCFFFFFE0003FFFFFF52
:10458000FFFFFFFFFFF7FFFDFFFFF80001FFFFFF49
:10459000FFFFFFFFFFF7FFFDFFFFF00001FFFFFF41
:1045A000FFFFFFFFFFF7FFFDFFFFC00000FFFFFF62
:1045B000FFFFFFFFFFF7FFFDFFFF800000FFFFFF92
:1045C000FFFFFFFFFFF7FFFDFFFF000000FFFFFF02
:1045D000FFFFFFFFFFF7FFFDFFFFC00000FFFFFF32
:1045E000FFFFFFFFFFF7FFFDFFFFF00000FFFFFFF2
:1045F000FFFFFFFFFFF7FFFCFFFFFC0001FFFFFFD6
:10460000FFFFFFFFFFF7FFFEFFFFFC0001FFFFFFC3
:10461000FFFFFFFFFFF7FFFE7FFFFEC003FFFFC0AE
:10462000000000000FF7FFFF1FFFFEF00FFFFFC0AD
:10463000000000000FF7FFFFDFFFFEFE1FFFFFC0BF
:10464000000000000FF7FFFF9FFFFDFFFFFFFFC00F
:10465000000000000FF7FFFFBFFFFDFFFFFFFFC0DF
:10466000000000000FF7FFFFBFFFFDFFFFFFFFC0CF
:10467000000000000FF7FFFF9FFFF3FFFFFFFFC0E9
:10468000000000000FF7FFFFDFFFC7FFFFFFFFC0C5
:10469000000000000FF7FFFFCFFFDFFFFFFFFFC0AD
:1046A000000000000FF7FFFFE3FFDFFFFFFFFFC089
:1046B00001FFFFF80FF7FFFFF81FBFFFFFFFFFC06D
:1046C00001FFFFF80FF7FFFFFFC67FFFFFFFFFC0EF
:1046D00001FFFFF80FF7FFFFFFF1FFFFFFFFFFC034
:1046E00001FFFFF80FF7FFFFFFFFFFFFFFFFFFC016
:1046F00001FFFFF80FF7FFFFFFFFFFFFFFFFFFC006
:1047000001FFFFF80FF7FFFFFFFFFFFFFFFFFFC0F5
:1047100001F000F80FF7FFFFFFFFFFFFFFFFFFC0F3
:1047200001F000F80FF7FFFFFFFFFFFFFFFFFFC0E3
:1047300001F000F80FF7FFFFFFFFFFFFFFFFFFC0D3
:1047400001F000F80FF7FFFFFFFFFFFFFFFFFFC0C3
:1047500001F000F80FF7FFFFFFFFFFFFFFFFFFC0B3
:1047600001F000F80FF7FFFFFFFFFFFFFFFFFFC0A3
:1047700001F000F80FF7FFFFFFFFFFFFFFFFFFC093
:1047800001F000F80FF7FFFFFFFFFFFFFFFFFFC083
:1047900001F000F80FF7FFFFFFFFFFFFFFFFFFC073
:1047A00001F000F80FF7FFFFFFFFFFFFFFFFFFC063
:1047B00001F000F80FF7FFFFFFFFFFFFFFFFFFC053
:1047C000F801F0000FF7FFFFFFFFFFFFFFFFFFC043
:1047D000F801F0000FF7FFFFFFFFFFFFFFFFFFC033
:1047E000F801F0000FF7FFFFFFFFFFFFFFFFFFC023
:1047F000F801F0000FF7FFFFFFFFFFFFFFFFFFC013
:10480000F801F0000FF7FFFFFFFFFFFFFFFFFFC002
:10481000F801F0F80FF7FFFFFFFFFFFFFFFFFFC0FA
:10482000F801F0F80FF7FFFFFFFFFFFFFFFFFFC0EA
:10483000F801F0F80FF7FFFFFFFFFFFFFFFFFFC0DA
:10484000F801F0F80FF7FFFFFFFFFFFFFFFFFFC0CA
:10485000F801F0F80FF7FFFFFFFC1FFFFFFFFFC09D
:10486000FFFFF0F80FF7FFFFFFF3E7FFFFFFFFC0C9
:10487000FFFFF0F80FF7FFFFFFEFF9FFFFFFFFC0AB
:10488000FFFFF0F80FF7FFFFFFDFFDFFFFFFFFC0A7
:10489000FFFFF0F80FF7FFFFFFBFFEFFFFFFFFC0B6
:1048A000FFFFF0F80FF7FFFFFFBFFEFFFFFFFFC0A6
:1048B000000000F80FF7FFFFFF3FFF7FFFFFFFC083
:1048C000000000F80FF7FFFFFF7FFF7FFFFFFFC033
:1048D000000000F80FF7FFFFFF7FFF7FFFFFFFC023
:1048E000000000F80FF7FFFFFF7FFF7FFFFFFFC013
:1048F000000000F80FF7FFFFFF3FFF7FFFFFFFC043
:1049000001FFFFF80FF7FFFFFFBFFEFFFFFFFFC034
:1049100001FFFFF80FF7FFFFFFBFFEFFFFFFFFC024
:1049200001FFFFF80FF7FFFFFFDFFDFFFFFFFFC0F5
:1049300001FFFFF80FF7FFFFFFEFFBFFFFFFFFC0D7
:1049400001FFFFF80FF7FFFFFFF1C7FFFFFFFFC0F9
:1049500001FFFFF80FF7FFFFFFFC1FFFFFFFFFC086
:10496000000000000FF7FFFFFFFFFFFFFFFFFFC08A
:10497000000000000FF7FFFFFFFFFFFFFFFFFFC07A
:10498000000000000FF7FFFFFFFFFFFFFFFFFFC06A
:10499000000000000FF7FFFFFFFFFFFFFFFFFFC05A
:1049A000000000000FF7FFFFFFFFFFFFFFFFFFC04A
:1049B000000000000FF7FFFFFFFFFFFFFFFFFFC03A
:1049C000000000000FF7FFFFFFFFFFFFFFFFFFC02A
:1049D000000000000FF7FFFFFFFFFFFFFFFFFFC01A
:1049E000000000000FF7FFFFFFFFFFFFFFFFFFC00A
:1049F000000000000FF7FFFFFFFFFFFFFFFFFFFFBB
:104A0000FFFFFFFFFFF7FFFFFFFFFFFFFFFFFFFFBE
:104A1000FFFFFFFFFFF7FFFFFFFFFFFFFFFFFFFFAE
:104A2000FFFFFFFFFFF7FFFFFFFFFFFFFFFFFFFF9E
:104A3000FFFFFFFFFFF7FFFFFFFFFFFFFFFFFFFF8E
:104A4000FFFFFFFFFFF7FFFFFFFFFFFFFFFFFFFF7E
:104A5000FFFFFFFFFFF7FFFFFFFFFFFFFFFFFFFF6E
:104A6000FFFFFFFFFFF7FFFFFFFFFFFFFFFFFFFF5E
:104A7000FFFFFFFFFFF7FFFFFFFFFFFFFFFFFFFF4E
:104A8000FFFFFFFFFFF7FFFFFFFFFFFFFFFFFFFF3E
:104A9000FFFFFFFFFFF7FFFFFFFFFFFFFFFFFFFF2E
:104AA000FFFFFFFFFFF7FFFFFFFFFFFFFFFFFFFF1E
:104AB000FFFFFFFFFFF7FFFFFFFFFFFFFFFFFFFF0E
:104AC000FFFFFFFFFFF7FFFFFFFFFFFFFFFFFFFFFE
:104AD000FFFFFFFFFFF7FFFFFFFFFFFFFFFFFFFFEE
:104AE000FFFFFFFFFFF7FFFFFFFFFFFFFFFF0000DC
:104AF00000000000000FFFFFFFFFFFFFFFFF0000AF
:104B000000000000000FFFFFFFFFFFFFFFFF00009E
:104B100000000000000FFFFFFFFFFFFFFFFF00008E
:104B200000000000000FFFFFFFFFFFFFFFFF00007E
:104B300000000000000FFFFFFFFFFFFFFFFF00006E
:104B400000000000000FFFFFFFFFFFFFFFFF00005E
:104B500000000000000FFFFFFFFFFFFFFFFF00004E
:104B600000000000000FFFFFFFFFFFFFFFFF00003E
:104B700000000000000FFFFFFFFFFFFFFFFF00002E
:104B800000000000000FFFFFFFFFFFFFFFFF00001E
:104B900000000000000FFFFFFFFFFFFFFFFF00000E
:104BA000001FF000000FFFFFFFFFFFFFFFFF0000EF
:104BB000007FFE00000FFFFFFFFFFFFFFFFF000071
:104BC00003FFFFC0000FFFFFFFFFFFFFFFFF00001D
:104BD00007FFFFE0000FFFFFFFFFFFFFFFFF0000E9
:104BE0000FFFFFF0000FFFFFFFFFFFFFFFFF0000C1
:104BF0003FFFFFF8000FFFFFFFFFFFFFFFFF000079
:104C00007FFFFFFC000FFFFFFFFFFFFFFFFF000024
:104C1000FFFFFFFE000FFFFFFFFFFFFFFFFF000092
:104C2000FFFFFFFE000FFFFFFFFFFFFFFFFF000181
:104C3000FFFFFFFF000FFFFFFFFFFFFFFFFF000170
:104C4000FFFFFFFF000FFFFFFFFFFFFFFFFF00035E
:104C5000FFFFFFFF800FFFFFFFFFFFFFFFFF0003CE
:104C6000FFFFFFFF800FFFFFFFFFFFFFFFFF0007BA
:104C7000FFFFFFFFC00FFFFFFFFFFFFFFFFF00076A
:104C8000FFFFFFFFC00FFFFFFFFFFFFFFFFF00075A
:104C9000FFFFFFFFC00FFFFFFFFFFFFFFFFF000F42
:104CA000FFFFFFFFE00FFFFFFFFFFFFFFFFF000F12
:104CB000FFFFFFFFE00FFFFFFFFFFFFFFFFF000F02
:104CC000FFFFFFFFE00FFFFFFFFFFFFFFFFF000FF2
:104CD000FFFFFFFFE00FFFFFFFFFFFFFFFFF000FE2
:104CE000FFFFFFFFE00FFFFFFFFFFFFFFFFF000FD2
:104CF000FFFFFFFFE00FFFFFFFFFFFFFFFFF000FC2
:104D0000FFFFFFFFE00FFFFFFFFFFFFFFFFF0007B9
:104D1000FFFFFFFFE00FFFFFFFFFFFFFFFFF0007A9
:104D2000FFFFFFFFC00FFFFFFFFFFFFFFFFF0007B9
:104D3000FFFFFFFFC00FFFFFFFFFFFFFFFFF0003AD
:104D4000FFFFFFFF800FFFFFFFFFFFFFFFFF0003DD
:104D5000FFFFFFFF800FFFFFFFFFFFFFFFFF0003CD
:104D6000FFFFFFFF000FFFFFFFFFFFFFFFFF00013F
:104D7000FFFFFFFF000FFFFFFFFFFFFFFFFF000030
:104D8000FFFFFFFE000FFFFFFFFFFFFFFFFF000021
:104D9000FFFFFFFC000FFFFFFFFFFFFFFFFF000013
:104DA0007FFFFFF8000FFFFFFFFFFFFFFFFF000087
:104DB0003FFFFFF8000FFFFFFFFFFFFFFFFF0000B7
:104DC0001FFFFFE0000FFFFFFFFFFFFFFFFF0000DF
:104DD00007FFFFC0000FFFFFFFFFFFFFFFFF000007
:104DE00001FFFF80000FFFFFFFFFFFFFFFFF00003D
:104DF00000FFFC00000FFFFFFFFFFFFFFFFF0000B1
:104E0000001FF000000FFFFFFFFFFFFFFFFF00008C
:104E100000000000000FFFFFFFFFFFFFFFFF00008B
:104E200000000000000FFFFFFFFFFFFFFFFF00007B
:104E300000000000000FFFFFFFFFFFFFFFFF00006B
:104E400000000000000FFFFFFFFFFFFFFFFF00005B
:104E500000000000000FFFFFFFFFFFFFFFFF00004B
:104E600000000000000FFFFFFFFFFFFFFFFF00003B
:104E700000000000000FFFFFFFFFFFFFFFFF00002B
:104E800000000000000FFFFFFFFFFFFFFFFF00001B
:104E900000000000000FFFFFFFFFFFFFFFFF00000B
:104EA00000000000000FFFFFFFFFFFFFFFFF0000FB
:104EB00000000000000FFFFFFFFFFFFFFFFF0000EB
:104EC00000000000000FFFFFFFFFFFFFFFFF0000DB
:104ED00000000000000FFFFFFFFFFFFFFFFF0000CB
:104EE00000000000000FFFFFFFFFFFFFFFFF0000BB
:104EF00000000000000FFFFFFFFFFFFFFFFF0000AB
:104F0000000FC000000FFFFFFFFFFFFFFFFF0000CB
:104F1000007FFC00000FFFFFFFFFFFFFFFFF00000F
:104F200003FFFF00000FFFFFFFFFFFFFFFFF000079
:104F300007FFFFC0000FFFFFFFFFFFFFFFFF0000A5
:104F40001FFFFFF0000FFFFFFFFFFFFFFFFF00004D
:104F50003FFFFFF0000FFFFFFFFFFFFFFFFF00001D
:104F60007FFFFFFC000FFFFFFFFFFFFFFFFF0000C1
:104F70007FFFFFFC000FFFFFFFFFFFFFFFFF0000B1
:104F8000FFFFFFFE000FFFFFFFFFFFFFFFFF00011E
:104F9000FFFFFFFF000FFFFFFFFFFFFFFFFF00010D
:104FA000FFFFFFFF000FFFFFFFFFFFFFFFFF0003FB
:104FB000FFFFFFFF800FFFFFFFFFFFFFFFFF00036B
:104FC000FFFFFFFF800FFFFFFFFFFFFFFFFF000757
:104FD000FFFFFFFFC00FFFFFFFFFFFFFFFFF000707
:104FE000FFFFFFFFC00FFFFFFFFFFFFFFFFF0007F7
:104FF000FFFFFFFFC00FFFFFFFFFFFFFFFFF0007E7
:10500000FFFFFFFFE00FFFFFFFFFFFFFFFFF000FAE
:10501000FFFFFFFFE00FFFFFFFFFFFFFFFFF000F9E
:10502000FFFFFFFFE00FFFFFFFFFFFFFFFFF000F8E
:10503000FFFFFFFFE00FFFFFFFFFFFFFFFFF000F7E
:10504000FFFFFFFFE00FFFFFFFFFFFFFFFFF000F6E
:10505000FFFFFFFFE00FFFFFFFFFFFFFFFFF000F5E
:10506000FFFFFFFFC00FFFFFFFFFFFFFFFFF000776
:10507000FFFFFFFFC00FFFFFFFFFFFFFFFFF000766
:10508000FFFFFFFFC00FFFFFFFFFFFFFFFFF000756
:10509000FFFFFFFFC00FFFFFFFFFFFFFFFFF000746
:1050A000FFFFFFFF800FFFFFFFFFFFFFFFFF00037A
:1050B000FFFFFFFF800FFFFFFFFFFFFFFFFF00036A
:1050C000FFFFFFFF000FFFFFFFFFFFFFFFFF0001DC
:1050D000FFFFFFFF000FFFFFFFFFFFFFFFFF0001CC
:1050E000FFFFFFFE000FFFFFFFFFFFFFFFFF0000BE
:1050F000FFFFFFFE000FFFFFFFFFFFFFFFFF0000AE
:105100007FFFFFFC000FFFFFFFFFFFFFFFFF00001F
:105110003FFFFFF0000FFFFFFFFFFFFFFFFF00005B
:105120000FFFFFF0000FFFFFFFFFFFFFFFFF00007B
:1051300007FFFFC0000FFFFFFFFFFFFFFFFF0000A3
:1051400001FFFF80000FFFFFFFFFFFFFFFFF0000D9
:10515000007FFC00000FFFFFFFFFFFFFFFFF0000CD
:10516000000FC000000FFFFFFFFFFFFFFFFF000069
:1051700000000000000FFFFFFFFFFFFFFFFF000028
:1051800000000000000FFFFFFFFFFFFFFFFF000018
:1051900000000000000FFFFFFFFFFFFFFFFF000008
:1051A00000000000000FFFFFFFFFFFFFFFFF0000F8
:1051B00000000000000FFFFFFFFFFFFFFFFF0000E8
:1051C00000000000000FFFFFFFFFFFFFFFFF0000D8
:1051D00000000000000FFFFFFFFFFFFFFFFF0000C8
:1051E00000000000000FFFFFFFFFFFFFFFFF0000B8
:1051F00000000000000FFFFFFFFFFFFFFFFF0000A8
:1052000000000000000FFFFFFFFFFFFFFFFF000097
:1052100000000000000FFFFFFFFFFFFFFFFFFFFF89
:10522000FFFFFFFFFFFFFFFFFFFFFFFFFFFFFFFF8E
:10523000FFFFFFFFFFF80000000000000000FFFF7D
:10524000FFFFFFFFFFF80000000000000000FFFF6D
:10525000FFFFFFFFFFF80000000000000000FFFF5D
:10526000FFFFFFFFFFF80000000000000000FFFF4D
:10527000FFFFFFFFFFF80000000000000000FFFF3D
:10528000FFFFFFFFFFF80000000000000000FFFF2D
:10529000FFFFFFFFFFF80000000000000000FFFF1D
:1052A000FFFFFFFFFFF80000000040000000FFFFCD
:1052B000FFFFFFFFFFF800000000E0000000FFFF1D
:1052C000FFFFFFFFFFF800000000E0000000FFFF0D
:1052D000FFFFFFFFFFF800000000E0000000FFFFFD
:1052E000FFFFFFFFFFF800000010E1000000FFFFDC
:1052F000FFFFFFFFFFF80000003CE7800000FFFF1A
:10530000FFFFFFFFFFF80000003FFF800000FFFFEE
:10531000FFFFFFFFFFF80000033FFF980000FFFFC3
:10532000FFFFFFFFFFF80000079FFF3C0000FFFFAB
:10533000FFFFFFFFFFF800000787FC3C0000FFFFB6
:10534000FFFFFFFFFFF80000C783F83C6000FFFF8E
:10535000E00000007FF80001E780E03CF000FFFF84
:10536000E0000000FFF80001FF80E03FF000FFFFD9
:10537000F0000001FFF80001FF80E03FF000FFFFB8
:10538000B8000003BFF800007F80E03FE000FFFFAF
:105390009C0000073FF800003FC0E07F8000FFFF57
:1053A0008E00000E3FF800001FF0E1FF0000FFFF3D
:1053B0008700001C3FF800007FF8E3FFC000FFFFFC
:1053C000838000383FF80000FFFEEFFFE000FFFFA2
:1053D00081C000703FF80000FC7FFFC7E000FFFFC6
:1053E00080E000E03FF80000F03FFF81E000FFFFB9
:1053F000807001C03FF80000600FFE006000FFFFFA
:10540000803803803FF800000003F8000000FFFF31
:10541000801C07003FF80000600FFE004000FFFF07
:10542000800E0E003FF80000F03FFF81E000FFFF1C
:1054300080071C003FF80000FC7FFFC7E000FFFF73
:105440008003B8003FF80000FFFEEFFFE000FFFF21
:105450008001F0003FF800007FF8E3FFC000FFFF8D
:105460008000E0003FF800001FF0E1FF0000FFFFB8
:10547000800070003FF800003FC0E07F8000FFFF29
:10548000800038003FF80000FF80E03FE000FFFFB1
:1054900080001C003FF80001FF80E03FF000FFFFAC
:1054A00080000E003FF80001FF80E03FF000FFFFAA
:1054B000800006003FF80001E780E03CF000FFFFBD
:1054C000800003003FF80000C783F83C6000FFFF46
:1054D000800003003FF800000787FC3C0000FFFF4E
:1054E000800003003FF80000079FFF3C0000FFFF23
:1054F000800006003FF80000033FFF980000FFFF18
:1055000080000E003FF80000003FFF800000FFFF1A
:1055100080001C003FF80000003CE7800000FFFF17
:10552000800038003FF800000010E1000000FFFF9D
:10553000800070003FF800000000E0000000FFFF66
:105540008000E0003FF800000000E0000000FFFFE6
:105550008001F0003FF800000000E0000000FFFFC5
:105560008003B8003FF80000000040000000FFFF8B
:1055700080071C003FF80000000000000000FFFF53
:10558000800E0E003FF80000000000000000FFFF4A
:10559000801C07003FF80000000000000000FFFF33
:1055A000803803803FF80000000000000000FFFF8B
:1055B000807001C03FF80000000000000000FFFF05
:1055C00080E000E03FF80000000000000000FFFF66
:1055D00081C000703FF80000000000000000FFFFE5
:1055E000838000383FF80000000000000000FFFF4B
:1055F0008700001C3FF80000000000000000FFFFD3
:105600008E00000E3FF80000000000000000FFFFC9
:105610009C0000073FF80000000000000000FFFFB2
:10562000B8000003BFF80000007C000003C0FFFFCB
:10563000F0000001BFF8000000FF0001FE00FFFFC6
:10564000E0000001FFF8000000FF0001F000FFFF94
:10565000E0000000FFF8000001FFFC01C000FFFFB8
:10566000FFFFFFFFFFF800000FFFFE01C000FFFF7C
:10567000FFFFFFFFFFF800003FFFFE01C000FFFF3C
:10568000FFFFFFFFFFF800007FFFFF01C000FFFFEB
:10569000FFFFFFFFFFF80000FFFFFF01C000FFFF5B
:1056A000FFFFFFFFFFF80000FFFFFFFFE000FFFF2D
:1056B000FFFFFFFFFFF80000FFFFFFFFE000FFFF1D
:1056C000FFFFFFFFFFF80000FFFFFFFFE000FFFF0D
:1056D000FFFFFFFFFFF80000FFFFFFFC0000FFFFE0
:1056E000FFFFFFFFFFF80000FFFFFF800000FFFF4C
:1056F000FFFFFFFFFFF80000FFFFFF800000FFFF3C
:10570000FFFFFFFFFFF80000FFFFFFC00000FFFFEB
:10571000FFFFFFFFFFF80001FFFFFFC00000FFFFDA
:10572000FFFFFFFFFFF80003FFFFFFE00000FFFFA8
:10573000FFFFFFFFFFF80007FFFFFFE00000FFFF94
:10574000FFFFFFFFFFF80007FFFFFFE00000FFFF84
:10575000FFFFFFFFFFF8000FFFFFFFE00000FFFF6C
:10576000FFFFFFFFFFF8000FFFFFFFE00000FFFF5C
:10577000FFFFFFFFFFF8000FFFFFFFC00000FFFF6C
:10578000FFFFFFFFFFF8000FFFFFFFC00000FFFF5C
:10579000FFFFFFFFFFF8000FFFFFFF800000FFFF8C
:1057A000FFFFFFFFFFF8000FFFFFFF000000FFFFFC
:1057B000FFFFFFFFFFF8000FFFFFFF800000FFFF6C
:1057C000FFFFFFFFFFF80007FFFFFFC1C000FFFF63
:1057D000FFFFFFFFFFF80003FFFFFFCFF000FFFF19
:1057E000FFFFFFFFFFF80001FFFFFFFFFC00FFFFCF
:1057F000FFFFFFFFFFF80003FFFFFFFFFC00FFFFBD
:10580000FFFFFFFFFFF80003FFFFFFFFFE00FFFFAA
:10581000FFFFFFFFFFF80003FFFFFFFFFE00FFFF9A
:10582000FFFFFFFFFFF80003FFFFFFFFFF00FFFF89
:10583000FFFFFFFFFFF80003FFFFFFFFFF00FFFF79
:10584000FFFFFFFFFFF80003FFFFFFFFFF00FFFF69
:10585000FFFFFFFFFFF80003FFFFFFFFFF00FFFF59
:10586000FFFFFFFFFFF80003FFFFFFFFFF00FFFF49
:10587000FFFFFFFFFFF80003FFFFFFFFFE00FFFF3A
:10588000FFFFFFFFFFF80001FFFFFFFFFE00FFFF2C
:10589000FFFFFFFFFFF80001FFFFFF3FFC00FFFFDE
:1058A000FFFFFFFFFFF80000FFFFFF0FF000FFFF0B
:1058B000FFFFFFFFFFF800003FFFFF01E000FFFFD9
:1058C000FFFFFFFFFFF800007FFFFE000000FFFF6B
:1058D000FFFFFFFFFFF800007FFFFE000000FFFF5B
:1058E000FFFFFFFFFFF800007FFFFE000000FFFF4B
:1058F000FFFFFFFFFFF800007FFFFC000000FFFF3D
:10590000FFFFFFFFFFF800003FFFF8000000FFFF70
:10591000FFFFFFFFFFF800003FFFE0000000FFFF78
:10592000FFFFFFFFFFF800001FFFE0000000FFFF88
:10593000FFFFFFFFFFF8000007FFC0000000FFFFB0
:10594000FFFFFFFFFFF80000003F80000000FFFFA7
:10595000FFFFFFFFFFF80000000E00000000FFFF48
:10596000FFFFFFFFFFF80000000000000000FFFF46
:10597000FFFFFFFFFFF80000000000000000FFFF36
:10598000FFFFFFFFFFF80000000000000000FFFF26
:10599000FFFFFFFFFFF80000000000000000FFFF16
:1059A000FFFFFFFFFFF80000000000000000FFFF06
:1059B000FFFFFFFFFFF80000000000000000FFFFF6
:1059C000FFFFFFFFFFF80000000000000000FFFFE6
:1059D000FFFFFFFFFFF80000000000000000FFFFD6
:1059E000FFFFFFFFFFF80000000000000000FFFFC6
:1059F000FFFFFFFFFFF80000000080000000FFFF36
:105A0000FFFFFFFFFFF80000000080000000FFFF25
:105A1000FFFFFFFFFFF80000000080000000FFFF15
:105A2000FFFFFFFFFFF80000000080000000FFFF05
:105A3000FFFFFFFFFFF80000000080000000FFFFF5
:105A4000FFFFFFFFFFF80000000080000000FFFFE5
:105A5000FFFFFFFFFFF800000001C0000000FFFF94
:105A6000FFFFFFFFFFF800000001C0000000FFFF84
:105A7000FFFFFFFFFFF800010001C0004000FFFF33
:105A8000FFFFFFFFFFF80000C001C000C000FFFFE4
:105A9000FFFFFFFFFFF80000E001C0038000FFFFF1
:105AA000FFFFFFFFFFF800007803E00F0000FFFF9B
:105AB000FFFFFFFFFFF800003C03E01E0000FFFFB8
:105AC000FFFFFFFFFFF800001F03E07C0000FFFF67
:105AD000FFFFFFFFFFF800000FC3E0F80000FFFF2B
:105AE000FFFFFFFFFFF8000007EC1BF00000FFFFC7
:105AF000FFFFFFFFFFF8000003D007E00000FFFFFB
:105B0000FFFFFFFFFFF8000001A002C00000FFFF41
:105B1000FFFFFFFFFFF80000014001400000FFFF12
:105B2000FFFFFFFFFFF80000004001000000FFFF43
:105B3000FFFFFFFFFFF8000000C000800000FFFF34
:105B4000FFFFFFFFFFF800007C80009F0000FFFFC9
:105B5000FFFFFFFFFFF8007FFC80009FFF00FFFFBB
:105B6000FFFFFFFFFFF8007FFC80009FFF00FFFFAB
:105B7000FFFFFFFFFFF800007CC0009F0000FFFF59
:105B8000FFFFFFFFFFF80000004001000000FFFFE3
:105B9000FFFFFFFFFFF80000004001000000FFFFD3
:105BA000FFFFFFFFFFF80000002002400000FFFFA2
:105BB000FFFFFFFFFFF80000019004C00000FFFF9F
:105BC000FFFFFFFFFFF8000003CE39E00000FFFFFA
:105BD000FFFFFFFFFFF8000007E3E3F00000FFFF17
:105BE000FFFFFFFFFFF800000FC3E1F80000FFFF19
:105BF000FFFFFFFFFFF800001F03E07C0000FFFF36
:105C0000FFFFFFFFFFF800003C03E01E0000FFFF66
:105C1000FFFFFFFFFFF800007803E00F0000FFFF29
:105C2000FFFFFFFFFFF80000E001C0038000FFFF5F
:105C3000FFFFFFFFFFF80000C001C000C000FFFF32
:105C4000FFFFFFFFFFF800010001C0004000FFFF61
:105C5000FFFFFFFFFFF800000001C0000000FFFF92
:105C6000FFFFFFFFFFF800000001C0000000FFFF82
:105C7000FFFFFFFFFFF80000000080000000FFFFB3
:105C8000FFFFFFFFFFF80000000080000000FFFFA3
:105C9000FFFFFFFFFFF80000000080000000FFFF93
:105CA000FFFFFFFFFFF80000000080000000FFFF83
:105CB000FFFFFFFFFFF80000000080000000FFFF73
:105CC000FFFFFFFFFFF80000000080000000FFFF63
:105CD000FFFFFFFFFFF80000000000000000FFFFD3
:105CE000FFFFFFFFFFF80000000000000000FFFFC3
:105CF000FFFFFFFFFFF80000000000000000FFFFB3
:105D0000FFFFFFFFFFF80000000000000000FFFFA2
:105D1000FFFFFFFFFFF80000000000000000FFFF92
:105D2000FFFFFFFFFFF80000000000000000FFFF82
:105D3000FFFFFFFFFFF80000000000000000FFFF72
:105D4000FFFFFFFFFFF80000000000000000FFFF62
:105D5000FFFFFFFFFFF80000000000000000FFFF52
:105D6000FFFFFFFFFFF80000000000000000FFFF42
:105D7000FFFFFFFFFFFFFFFFFFFFFFFFFFFFFFFF33
:105D8000FFFFFFFFFFFFFFFFFFFFFFFFFFFFFFFF23
:105D9000FFFFFFFFFFFFFFFFFFFFFFFFFFFFFFFF13
:105DA000FFFFFFFFFFFFFFFFFFFFFFFFFFFFFFFF03
:105DB000FFFFFFFFFFFFFFFFFFFFFFFFFFFFFFFFF3
:105DC000FFFFFFFFFFFFFFFFFFFFFFFFFFFFFFFFE3
:105DD000FFFFFFFFFFFFFFFFFFFFFFFFFFFFFFFFD3
:105DE000FFFFFFFFFFFFFFFFFFFFFFFFFFFFFFFFC3
:105DF000FFFFFFFFFFFFFFFFFFFFFFFFFFFFFFFFB3
:105E0000FFFFFFFFFFFFFFFFFFFFFFFFFFFFFFFFA2
:105E1000FFFFFFFFFFFFFFFFFFFFFFFFFFFFFFFF92
:105E2000FFFFFFFFFFFFFFFFFFFFFFFFFFFFFFFF82
:105E3000FFFFFFFFFFFFFFFFFFFFFFFFFFFFFFFF72
:105E4000FFFFFFFFFFE7FFFFFFFFFFFFFFFFFFFF7A
:105E5000FFFFFFFFFFE7FFFFFFFFFFFFFFFFFFFF6A
:105E6000FFFFFFFFFFE7FFFFFFFFFFFFFFFFFFFF5A
:105E7000FFFFFFFFFFE3FFFFFFFFFFFFFFFFFFFF4E
:105E8000FFFFFFFFFFE007FFFFFFFFFFFFFFFFFF39
:105E9000FFFFFFFFFFE007FFFFFFFFFFFFFFFFFF29
:105EA000FFFFFFFFFFFFFFFFFFFFFFFFFFFFFFFF02
:105EB000FFFFFFFFFFFFFFFFFFFFFFFFFFFFFFFFF2
:105EC000FFFFFFFFFFF81FFFFFFFFFFFFFFFFFFFC9
:105ED000FFFFFFFFFFF00FFFFFFFFFFFFFFFFFFFD1
:105EE000FFFFFFFFFFE247FFFFFFFFFFFFFFFFFF97
:105EF000FFFFFFFFFFE667FFFFFFFFFFFFFFFFFF63
:105F0000FFFFFFFFFFE667FFFFFFFFFFFFFFFFFF52
:105F1000FFFFFFFFFFE247FFFFFFFFFFFFFFFFFF66
:105F2000FFFFFFFFFFF00FFFFFFFFFFFFFFFFFFF80
:105F3000FFFFFFFFFFF81FFFFFFFFFFFFFFFFFFF58
:105F4000FFFFFFFFFFFFFFFFFFFFFFFFFFFFFFFF61
:105F5000FFFFFFFFFFFFFFFFFFFFFFFFFFFFFFFF51
:105F6000FFFFFFFFFFE003FFFFFFFFFFFFFFFFFF5C
:105F7000FFFFFFFFFFE001FFFFFFFFFFFFFFFFFF4E
:105F8000FFFFFFFFFFE3C0FFFFFFFFFFFFFFFFFF7C
:105F9000FFFFFFFFFFE7E4FFFFFFFFFFFFFFFFFF44
:105FA000FFFFFFFFFFE7E4FFFFFFFFFFFFFFFFFF34
:105FB000FFFFFFFFFFE3C4FFFFFFFFFFFFFFFFFF48
:105FC000FFFFFFFFFFF008FFFFFFFFFFFFFFFFFFE7
:105FD000FFFFFFFFFFF819FFFFFFFFFFFFFFFFFFBE
:105FE000FFFFFFFFFFFFFFFFFFFFFFFFFFFFFFFFC1
:105FF000FFFFFFFFFFFFFFFFFFFFFFFFFFFFFFFFB1
:10600000FFFFFFFFFFF007FFFFFFFFFFFFFFFFFFA7
:10601000FFFFFFFFFFE007FFFFFFFFFFFFFFFFFFA7
:10602000FFFFFFFFFFE4C7FFFFFFFFFFFFFFFFFFD3
:10603000FFFFFFFFFFE467FFFFFFFFFFFFFFFFFF23
:10604000FFFFFFFFFFE667FFFFFFFFFFFFFFFFFF11
:10605000FFFFFFFFFFE267FFFFFFFFFFFFFFFFFF05
:10606000FFFFFFFFFFF007FFFFFFFFFFFFFFFFFF47
:10607000FFFFFFFFFFF90FFFFFFFFFFFFFFFFFFF26
:10608000FFFFFFFFFFFFFFFFFFFFFFFFFFFFFFFF20
:10609000FFFFFFFFFFFFFFFFFFFFFFFFFFFFFFFF10
:1060A000FFFFFFFFFFF007FFFFFFFFFFFFFFFFFF07
:1060B000FFFFFFFFFFE007FFFFFFFFFFFFFFFFFF07
:1060C000FFFFFFFFFFE7FFFFFFFFFFFFFFFFFFFFF8
:1060D000FFFFFFFFFFE7FFFFFFFFFFFFFFFFFFFFE8
:1060E000FFFFFFFFFFE7FFFFFFFFFFFFFFFFFFFFD8
:1060F000FFFFFFFFFFE3FFFFFFFFFFFFFFFFFFFFCC
:10610000FFFFFFFFFFE007FFFFFFFFFFFFFFFFFFB6
:10611000FFFFFFFFFFE007FFFFFFFFFFFFFFFFFFA6
:10612000FFCFCFFFFFFFFFFFFFFFFFFFFFFFFFFFDF
:10613000FFC70FFFFFFFFFFFFFFFFFFFFFFFFFFF97
:10614000FFE21FFFFFF007FFFFFFFFFFFFFFFFFF63
:10615000FFF07FFFFFE007FFFFFFFFFFFFFFFFFFF5
:10616000FFF8FFFFFFE4C7FFFFFFFFFFFFFFFFFF99
:10617000FFFC7FFFFFE467FFFFFFFFFFFFFFFFFF65
:10618000FE000FFFFFE667FFFFFFFFFFFFFFFFFFC0
:10619000FE000FFFFFE267FFFFFFFFFFFFFFFFFFB4
:1061A000FFFFFFFFFFF007FFFFFFFFFFFFFFFFFF06
:1061B000FFFFFFFFFFF90FFFFFFFFFFFFFFFFFFFE5
:1061C000FFF33FFFFFFFFFFFFFFFFFFFFFFFFFFFAB
:1061D000FFE31FFFFFFFFFFFFFFFFFFFFFFFFFFFCB
:1061E000FFC78FFFFF0007FFFFFFFFFFFFFFFFFF5E
:1061F000FFCFCFFFFF0007FFFFFFFFFFFFFFFFFF06
:10620000FFCFCFFFFF83FFFFFFFFFFFFFFFFFFFF7A
:10621000FFC78FFFFFE0FFFFFFFFFFFFFFFFFFFF55
